{
    "contractName": "NftMarketplace",
    "abi": [
        {
            "inputs": [],
            "stateMutability": "nonpayable",
            "type": "constructor"
        },
        {
            "anonymous": false,
            "inputs": [
                {
                    "indexed": true,
                    "internalType": "address",
                    "name": "owner",
                    "type": "address"
                },
                {
                    "indexed": true,
                    "internalType": "address",
                    "name": "approved",
                    "type": "address"
                },
                {
                    "indexed": true,
                    "internalType": "uint256",
                    "name": "tokenId",
                    "type": "uint256"
                }
            ],
            "name": "Approval",
            "type": "event"
        },
        {
            "anonymous": false,
            "inputs": [
                {
                    "indexed": true,
                    "internalType": "address",
                    "name": "owner",
                    "type": "address"
                },
                {
                    "indexed": true,
                    "internalType": "address",
                    "name": "operator",
                    "type": "address"
                },
                {
                    "indexed": false,
                    "internalType": "bool",
                    "name": "approved",
                    "type": "bool"
                }
            ],
            "name": "ApprovalForAll",
            "type": "event"
        },
        {
            "anonymous": false,
            "inputs": [
                {
                    "indexed": false,
                    "internalType": "uint256",
                    "name": "tokenId",
                    "type": "uint256"
                },
                {
                    "indexed": false,
                    "internalType": "uint256",
                    "name": "price",
                    "type": "uint256"
                },
                {
                    "indexed": false,
                    "internalType": "address",
                    "name": "creator",
                    "type": "address"
                },
                {
                    "indexed": false,
                    "internalType": "bool",
                    "name": "isListed",
                    "type": "bool"
                }
            ],
            "name": "NftItemCreated",
            "type": "event"
        },
        {
            "anonymous": false,
            "inputs": [
                {
                    "indexed": true,
                    "internalType": "address",
                    "name": "previousOwner",
                    "type": "address"
                },
                {
                    "indexed": true,
                    "internalType": "address",
                    "name": "newOwner",
                    "type": "address"
                }
            ],
            "name": "OwnershipTransferred",
            "type": "event"
        },
        {
            "anonymous": false,
            "inputs": [
                {
                    "indexed": true,
                    "internalType": "address",
                    "name": "from",
                    "type": "address"
                },
                {
                    "indexed": true,
                    "internalType": "address",
                    "name": "to",
                    "type": "address"
                },
                {
                    "indexed": true,
                    "internalType": "uint256",
                    "name": "tokenId",
                    "type": "uint256"
                }
            ],
            "name": "Transfer",
            "type": "event"
        },
        {
            "inputs": [
                {
                    "internalType": "address",
                    "name": "to",
                    "type": "address"
                },
                {
                    "internalType": "uint256",
                    "name": "tokenId",
                    "type": "uint256"
                }
            ],
            "name": "approve",
            "outputs": [],
            "stateMutability": "nonpayable",
            "type": "function"
        },
        {
            "inputs": [
                {
                    "internalType": "address",
                    "name": "owner",
                    "type": "address"
                }
            ],
            "name": "balanceOf",
            "outputs": [
                {
                    "internalType": "uint256",
                    "name": "",
                    "type": "uint256"
                }
            ],
            "stateMutability": "view",
            "type": "function"
        },
        {
            "inputs": [
                {
                    "internalType": "uint256",
                    "name": "tokenId",
                    "type": "uint256"
                }
            ],
            "name": "buyNft",
            "outputs": [],
            "stateMutability": "payable",
            "type": "function"
        },
        {
            "inputs": [],
            "name": "getAllNftsOnSale",
            "outputs": [
                {
                    "components": [
                        {
                            "internalType": "uint256",
                            "name": "tokenId",
                            "type": "uint256"
                        },
                        {
                            "internalType": "uint256",
                            "name": "price",
                            "type": "uint256"
                        },
                        {
                            "internalType": "address",
                            "name": "creator",
                            "type": "address"
                        },
                        {
                            "internalType": "bool",
                            "name": "isListed",
                            "type": "bool"
                        }
                    ],
                    "internalType": "struct NftMarketplace.NftItem[]",
                    "name": "",
                    "type": "tuple[]"
                }
            ],
            "stateMutability": "view",
            "type": "function"
        },
        {
            "inputs": [
                {
                    "internalType": "uint256",
                    "name": "tokenId",
                    "type": "uint256"
                }
            ],
            "name": "getApproved",
            "outputs": [
                {
                    "internalType": "address",
                    "name": "",
                    "type": "address"
                }
            ],
            "stateMutability": "view",
            "type": "function"
        },
        {
            "inputs": [
                {
                    "internalType": "uint256",
                    "name": "tokenId",
                    "type": "uint256"
                }
            ],
            "name": "getNftItem",
            "outputs": [
                {
                    "components": [
                        {
                            "internalType": "uint256",
                            "name": "tokenId",
                            "type": "uint256"
                        },
                        {
                            "internalType": "uint256",
                            "name": "price",
                            "type": "uint256"
                        },
                        {
                            "internalType": "address",
                            "name": "creator",
                            "type": "address"
                        },
                        {
                            "internalType": "bool",
                            "name": "isListed",
                            "type": "bool"
                        }
                    ],
                    "internalType": "struct NftMarketplace.NftItem",
                    "name": "",
                    "type": "tuple"
                }
            ],
            "stateMutability": "view",
            "type": "function"
        },
        {
            "inputs": [],
            "name": "getOwnedNfts",
            "outputs": [
                {
                    "components": [
                        {
                            "internalType": "uint256",
                            "name": "tokenId",
                            "type": "uint256"
                        },
                        {
                            "internalType": "uint256",
                            "name": "price",
                            "type": "uint256"
                        },
                        {
                            "internalType": "address",
                            "name": "creator",
                            "type": "address"
                        },
                        {
                            "internalType": "bool",
                            "name": "isListed",
                            "type": "bool"
                        }
                    ],
                    "internalType": "struct NftMarketplace.NftItem[]",
                    "name": "",
                    "type": "tuple[]"
                }
            ],
            "stateMutability": "view",
            "type": "function"
        },
        {
            "inputs": [
                {
                    "internalType": "address",
                    "name": "owner",
                    "type": "address"
                },
                {
                    "internalType": "address",
                    "name": "operator",
                    "type": "address"
                }
            ],
            "name": "isApprovedForAll",
            "outputs": [
                {
                    "internalType": "bool",
                    "name": "",
                    "type": "bool"
                }
            ],
            "stateMutability": "view",
            "type": "function"
        },
        {
            "inputs": [],
            "name": "listedItemsCount",
            "outputs": [
                {
                    "internalType": "uint256",
                    "name": "",
                    "type": "uint256"
                }
            ],
            "stateMutability": "view",
            "type": "function"
        },
        {
            "inputs": [],
            "name": "listingPrice",
            "outputs": [
                {
                    "internalType": "uint256",
                    "name": "",
                    "type": "uint256"
                }
            ],
            "stateMutability": "view",
            "type": "function"
        },
        {
            "inputs": [
                {
                    "internalType": "string",
                    "name": "tokenURI",
                    "type": "string"
                },
                {
                    "internalType": "uint256",
                    "name": "price",
                    "type": "uint256"
                }
            ],
            "name": "mintToken",
            "outputs": [
                {
                    "internalType": "uint256",
                    "name": "",
                    "type": "uint256"
                }
            ],
            "stateMutability": "payable",
            "type": "function"
        },
        {
            "inputs": [],
            "name": "name",
            "outputs": [
                {
                    "internalType": "string",
                    "name": "",
                    "type": "string"
                }
            ],
            "stateMutability": "view",
            "type": "function"
        },
        {
            "inputs": [],
            "name": "owner",
            "outputs": [
                {
                    "internalType": "address",
                    "name": "",
                    "type": "address"
                }
            ],
            "stateMutability": "view",
            "type": "function"
        },
        {
            "inputs": [
                {
                    "internalType": "uint256",
                    "name": "tokenId",
                    "type": "uint256"
                }
            ],
            "name": "ownerOf",
            "outputs": [
                {
                    "internalType": "address",
                    "name": "",
                    "type": "address"
                }
            ],
            "stateMutability": "view",
            "type": "function"
        },
        {
            "inputs": [
                {
                    "internalType": "uint256",
                    "name": "tokenId",
                    "type": "uint256"
                },
                {
                    "internalType": "uint256",
                    "name": "newPrice",
                    "type": "uint256"
                }
            ],
            "name": "placeNftOnSale",
            "outputs": [],
            "stateMutability": "payable",
            "type": "function"
        },
        {
            "inputs": [],
            "name": "renounceOwnership",
            "outputs": [],
            "stateMutability": "nonpayable",
            "type": "function"
        },
        {
            "inputs": [
                {
                    "internalType": "address",
                    "name": "from",
                    "type": "address"
                },
                {
                    "internalType": "address",
                    "name": "to",
                    "type": "address"
                },
                {
                    "internalType": "uint256",
                    "name": "tokenId",
                    "type": "uint256"
                }
            ],
            "name": "safeTransferFrom",
            "outputs": [],
            "stateMutability": "nonpayable",
            "type": "function"
        },
        {
            "inputs": [
                {
                    "internalType": "address",
                    "name": "from",
                    "type": "address"
                },
                {
                    "internalType": "address",
                    "name": "to",
                    "type": "address"
                },
                {
                    "internalType": "uint256",
                    "name": "tokenId",
                    "type": "uint256"
                },
                {
                    "internalType": "bytes",
                    "name": "data",
                    "type": "bytes"
                }
            ],
            "name": "safeTransferFrom",
            "outputs": [],
            "stateMutability": "nonpayable",
            "type": "function"
        },
        {
            "inputs": [
                {
                    "internalType": "address",
                    "name": "operator",
                    "type": "address"
                },
                {
                    "internalType": "bool",
                    "name": "approved",
                    "type": "bool"
                }
            ],
            "name": "setApprovalForAll",
            "outputs": [],
            "stateMutability": "nonpayable",
            "type": "function"
        },
        {
            "inputs": [
                {
                    "internalType": "uint256",
                    "name": "newPrice",
                    "type": "uint256"
                }
            ],
            "name": "setListingPrice",
            "outputs": [],
            "stateMutability": "nonpayable",
            "type": "function"
        },
        {
            "inputs": [
                {
                    "internalType": "bytes4",
                    "name": "interfaceId",
                    "type": "bytes4"
                }
            ],
            "name": "supportsInterface",
            "outputs": [
                {
                    "internalType": "bool",
                    "name": "",
                    "type": "bool"
                }
            ],
            "stateMutability": "view",
            "type": "function"
        },
        {
            "inputs": [],
            "name": "symbol",
            "outputs": [
                {
                    "internalType": "string",
                    "name": "",
                    "type": "string"
                }
            ],
            "stateMutability": "view",
            "type": "function"
        },
        {
            "inputs": [
                {
                    "internalType": "uint256",
                    "name": "index",
                    "type": "uint256"
                }
            ],
            "name": "tokenByIndex",
            "outputs": [
                {
                    "internalType": "uint256",
                    "name": "",
                    "type": "uint256"
                }
            ],
            "stateMutability": "view",
            "type": "function"
        },
        {
            "inputs": [
                {
                    "internalType": "address",
                    "name": "owner",
                    "type": "address"
                },
                {
                    "internalType": "uint256",
                    "name": "index",
                    "type": "uint256"
                }
            ],
            "name": "tokenOfOwnerByIndex",
            "outputs": [
                {
                    "internalType": "uint256",
                    "name": "",
                    "type": "uint256"
                }
            ],
            "stateMutability": "view",
            "type": "function"
        },
        {
            "inputs": [
                {
                    "internalType": "uint256",
                    "name": "tokenId",
                    "type": "uint256"
                }
            ],
            "name": "tokenURI",
            "outputs": [
                {
                    "internalType": "string",
                    "name": "",
                    "type": "string"
                }
            ],
            "stateMutability": "view",
            "type": "function"
        },
        {
            "inputs": [
                {
                    "internalType": "string",
                    "name": "tokenURI",
                    "type": "string"
                }
            ],
            "name": "tokenURIExists",
            "outputs": [
                {
                    "internalType": "bool",
                    "name": "",
                    "type": "bool"
                }
            ],
            "stateMutability": "view",
            "type": "function"
        },
        {
            "inputs": [],
            "name": "totalSupply",
            "outputs": [
                {
                    "internalType": "uint256",
                    "name": "",
                    "type": "uint256"
                }
            ],
            "stateMutability": "view",
            "type": "function"
        },
        {
            "inputs": [
                {
                    "internalType": "address",
                    "name": "from",
                    "type": "address"
                },
                {
                    "internalType": "address",
                    "name": "to",
                    "type": "address"
                },
                {
                    "internalType": "uint256",
                    "name": "tokenId",
                    "type": "uint256"
                }
            ],
            "name": "transferFrom",
            "outputs": [],
            "stateMutability": "nonpayable",
            "type": "function"
        },
        {
            "inputs": [
                {
                    "internalType": "address",
                    "name": "newOwner",
                    "type": "address"
                }
            ],
            "name": "transferOwnership",
            "outputs": [],
            "stateMutability": "nonpayable",
            "type": "function"
        }
    ],
    "bytecode": "60806040526658d15e176280006008553480156200001c57600080fd5b5060405180604001604052806006815260200165105c9d13919560d21b815250604051806040016040528060048152602001631053919560e21b81525081600090816200006a919062000197565b50600162000079828262000197565b50505062000096620000906200009c60201b60201c565b620000a0565b62000263565b3390565b600780546001600160a01b038381166001600160a01b0319831681179093556040519116919082907f8be0079c531659141344cd1fd0a4f28419497f9722a3daafe3b4186f6b6457e090600090a35050565b634e487b7160e01b600052604160045260246000fd5b600181811c908216806200011d57607f821691505b6020821081036200013e57634e487b7160e01b600052602260045260246000fd5b50919050565b601f8211156200019257600081815260208120601f850160051c810160208610156200016d5750805b601f850160051c820191505b818110156200018e5782815560010162000179565b5050505b505050565b81516001600160401b03811115620001b357620001b3620000f2565b620001cb81620001c4845462000108565b8462000144565b602080601f831160018114620002035760008415620001ea5750858301515b600019600386901b1c1916600185901b1785556200018e565b600085815260208120601f198616915b82811015620002345788860151825594840194600190910190840162000213565b5085821015620002535787850151600019600388901b60f8161c191681555b5050505050600190811b01905550565b61285d80620002736000396000f3fe6080604052600436106101c25760003560e01c80636f1a0af5116100f7578063a22cb46511610095578063c87b56dd11610064578063c87b56dd146104d2578063ccb4918d146104f2578063e985e9c514610507578063f2fde38b1461055057600080fd5b8063a22cb46514610469578063b88d4fde14610489578063c046372c146104a9578063c78f19f9146104bc57600080fd5b8063715018a6116100d1578063715018a6146104015780637c726b69146104165780638da5cb5b1461043657806395d89b411461045457600080fd5b80636f1a0af51461039f57806370a08231146103cc57806370cbcb43146103ec57600080fd5b8063243adbdd1161016457806342842e0e1161013e57806342842e0e1461031f57806343d32ae71461033f5780634f6ccce71461035f5780636352211e1461037f57600080fd5b8063243adbdd146102ca5780632f745c59146102dd57806336b536be146102fd57600080fd5b8063095ea7b3116101a0578063095ea7b31461025657806318160ddd1461027857806321f422e51461029757806323b872dd146102aa57600080fd5b806301ffc9a7146101c757806306fdde03146101fc578063081812fc1461021e575b600080fd5b3480156101d357600080fd5b506101e76101e236600461207b565b610570565b60405190151581526020015b60405180910390f35b34801561020857600080fd5b506102116105c2565b6040516101f391906120e8565b34801561022a57600080fd5b5061023e6102393660046120fb565b610654565b6040516001600160a01b0390911681526020016101f3565b34801561026257600080fd5b50610276610271366004612130565b61067b565b005b34801561028457600080fd5b50600f545b6040519081526020016101f3565b6102766102a536600461215a565b610795565b3480156102b657600080fd5b506102766102c536600461217c565b6108ba565b6102766102d83660046120fb565b6108eb565b3480156102e957600080fd5b506102896102f8366004612130565b610a1c565b34801561030957600080fd5b50610312610a94565b6040516101f391906121b8565b34801561032b57600080fd5b5061027661033a36600461217c565b610bcd565b34801561034b57600080fd5b506101e761035a3660046122db565b610be8565b34801561036b57600080fd5b5061028961037a3660046120fb565b610c18565b34801561038b57600080fd5b5061023e61039a3660046120fb565b610c8c565b3480156103ab57600080fd5b506103bf6103ba3660046120fb565b610cec565b6040516101f39190612310565b3480156103d857600080fd5b506102896103e7366004612346565b610d49565b3480156103f857600080fd5b50610312610dcf565b34801561040d57600080fd5b50610276610ede565b34801561042257600080fd5b506102766104313660046120fb565b610ef2565b34801561044257600080fd5b506007546001600160a01b031661023e565b34801561046057600080fd5b50610211610f4f565b34801561047557600080fd5b50610276610484366004612361565b610f5e565b34801561049557600080fd5b506102766104a436600461239d565b610f69565b6102896104b7366004612419565b610f9b565b3480156104c857600080fd5b5061028960085481565b3480156104de57600080fd5b506102116104ed3660046120fb565b611095565b3480156104fe57600080fd5b506102896111a5565b34801561051357600080fd5b506101e761052236600461245e565b6001600160a01b03918216600090815260056020908152604080832093909416825291909152205460ff1690565b34801561055c57600080fd5b5061027661056b366004612346565b6111b5565b60006001600160e01b031982166380ac58cd60e01b14806105a157506001600160e01b03198216635b5e139f60e01b145b806105bc57506301ffc9a760e01b6001600160e01b03198316145b92915050565b6060600080546105d190612491565b80601f01602080910402602001604051908101604052809291908181526020018280546105fd90612491565b801561064a5780601f1061061f5761010080835404028352916020019161064a565b820191906000526020600020905b81548152906001019060200180831161062d57829003601f168201915b5050505050905090565b600061065f8261122e565b506000908152600460205260409020546001600160a01b031690565b600061068682610c8c565b9050806001600160a01b0316836001600160a01b0316036106f85760405162461bcd60e51b815260206004820152602160248201527f4552433732313a20617070726f76616c20746f2063757272656e74206f776e656044820152603960f91b60648201526084015b60405180910390fd5b336001600160a01b038216148061071457506107148133610522565b6107865760405162461bcd60e51b815260206004820152603d60248201527f4552433732313a20617070726f76652063616c6c6572206973206e6f7420746f60448201527f6b656e206f776e6572206f7220617070726f76656420666f7220616c6c00000060648201526084016106ef565b610790838361128d565b505050565b3361079f83610c8c565b6001600160a01b0316146107f55760405162461bcd60e51b815260206004820152601d60248201527f596f7520617265206e6f74206f776e6572206f662074686973206e667400000060448201526064016106ef565b6000828152600c6020526040902060020154600160a01b900460ff161561085e5760405162461bcd60e51b815260206004820152601760248201527f4974656d20697320616c7265616479206f6e2073616c6500000000000000000060448201526064016106ef565b600854341461087f5760405162461bcd60e51b81526004016106ef906124cb565b6000828152600c6020526040902060028101805460ff60a01b1916600160a01b1790556001018190556108b6600980546001019055565b5050565b6108c433826112fb565b6108e05760405162461bcd60e51b81526004016106ef9061250f565b610790838383611379565b6000818152600c60205260408120600101549061090783610c8c565b90506001600160a01b03811633036109615760405162461bcd60e51b815260206004820152601860248201527f596f7520616c7265616479206f776e2074686973204e4654000000000000000060448201526064016106ef565b8134146109b05760405162461bcd60e51b815260206004820152601e60248201527f506c65617365207375626d6974207468652061736b696e67207072696365000060448201526064016106ef565b6000838152600c60205260409020600201805460ff60a01b191690556109d660096114ea565b6109e1813385611379565b6040516001600160a01b038216903480156108fc02916000818181858888f19350505050158015610a16573d6000803e3d6000fd5b50505050565b6000610a2783610d49565b8210610a6b5760405162461bcd60e51b8152602060048201526013602482015272496e646578206f7574206f6620626f756e647360681b60448201526064016106ef565b506001600160a01b03919091166000908152600d60209081526040808320938352929052205490565b60606000610aa1600f5490565b9050600080610aaf60095490565b67ffffffffffffffff811115610ac757610ac761222f565b604051908082528060200260200182016040528015610b0057816020015b610aed612032565b815260200190600190039081610ae55790505b50905060005b83811015610bc5576000610b1982610c18565b6000818152600c60205260409020600281015491925090600160a01b900460ff161515600103610bb05760408051608081018252825481526001830154602082015260028301546001600160a01b03811692820192909252600160a01b90910460ff16151560608201528451859087908110610b9757610b9761255c565b6020908102919091010152610bad600186612588565b94505b50508080610bbd9061259b565b915050610b06565b509392505050565b61079083838360405180602001604052806000815250610f69565b6000600b82604051610bfa91906125b4565b9081526040519081900360200190205460ff16151560011492915050565b6000610c23600f5490565b8210610c675760405162461bcd60e51b8152602060048201526013602482015272496e646578206f7574206f6620626f756e647360681b60448201526064016106ef565b600f8281548110610c7a57610c7a61255c565b90600052602060002001549050919050565b6000818152600260205260408120546001600160a01b0316806105bc5760405162461bcd60e51b8152602060048201526018602482015277115490cdcc8c4e881a5b9d985b1a59081d1bdad95b88125160421b60448201526064016106ef565b610cf4612032565b506000908152600c6020908152604091829020825160808101845281548152600182015492810192909252600201546001600160a01b03811692820192909252600160a01b90910460ff161515606082015290565b60006001600160a01b038216610db35760405162461bcd60e51b815260206004820152602960248201527f4552433732313a2061646472657373207a65726f206973206e6f7420612076616044820152683634b21037bbb732b960b91b60648201526084016106ef565b506001600160a01b031660009081526003602052604090205490565b60606000610ddc33610d49565b905060008167ffffffffffffffff811115610df957610df961222f565b604051908082528060200260200182016040528015610e3257816020015b610e1f612032565b815260200190600190039081610e175790505b50905060005b82811015610ed7576000610e4c3383610a1c565b6000818152600c602090815260409182902082516080810184528154815260018201549281019290925260028101546001600160a01b03811693830193909352600160a01b90920460ff161515606082015285519293509091859085908110610eb757610eb761255c565b602002602001018190525050508080610ecf9061259b565b915050610e38565b5092915050565b610ee6611541565b610ef0600061159b565b565b610efa611541565b60008111610f4a5760405162461bcd60e51b815260206004820152601c60248201527f5072696365206d757374206265206174206c656173742031207765690000000060448201526064016106ef565b600855565b6060600180546105d190612491565b6108b63383836115ed565b610f7333836112fb565b610f8f5760405162461bcd60e51b81526004016106ef9061250f565b610a16848484846116bb565b6000610fa683610be8565b15610ff35760405162461bcd60e51b815260206004820152601860248201527f546f6b656e2055524920616c726561647920657869737473000000000000000060448201526064016106ef565b60085434146110145760405162461bcd60e51b81526004016106ef906124cb565b611022600a80546001019055565b611030600980546001019055565b600061103b600a5490565b905061104733826116ee565b6110518185611708565b61105b818461179b565b6001600b8560405161106d91906125b4565b908152604051908190036020019020805491151560ff19909216919091179055905092915050565b60606110a08261122e565b600082815260066020526040812080546110b990612491565b80601f01602080910402602001604051908101604052809291908181526020018280546110e590612491565b80156111325780601f1061110757610100808354040283529160200191611132565b820191906000526020600020905b81548152906001019060200180831161111557829003601f168201915b50505050509050600061115060408051602081019091526000815290565b90508051600003611162575092915050565b81511561119457808260405160200161117c9291906125d0565b60405160208183030381529060405292505050919050565b61119d846118a5565b949350505050565b60006111b060095490565b905090565b6111bd611541565b6001600160a01b0381166112225760405162461bcd60e51b815260206004820152602660248201527f4f776e61626c653a206e6577206f776e657220697320746865207a65726f206160448201526564647265737360d01b60648201526084016106ef565b61122b8161159b565b50565b6000818152600260205260409020546001600160a01b031661122b5760405162461bcd60e51b8152602060048201526018602482015277115490cdcc8c4e881a5b9d985b1a59081d1bdad95b88125160421b60448201526064016106ef565b600081815260046020526040902080546001600160a01b0319166001600160a01b03841690811790915581906112c282610c8c565b6001600160a01b03167f8c5be1e5ebec7d5bd14f71427d1e84f3dd0314c0f7b2291e5b200ac8c7c3b92560405160405180910390a45050565b60008061130783610c8c565b9050806001600160a01b0316846001600160a01b0316148061134e57506001600160a01b0380821660009081526005602090815260408083209388168352929052205460ff165b8061119d5750836001600160a01b031661136784610654565b6001600160a01b031614949350505050565b826001600160a01b031661138c82610c8c565b6001600160a01b0316146113b25760405162461bcd60e51b81526004016106ef906125ff565b6001600160a01b0382166114145760405162461bcd60e51b8152602060048201526024808201527f4552433732313a207472616e7366657220746f20746865207a65726f206164646044820152637265737360e01b60648201526084016106ef565b6114218383836001611919565b826001600160a01b031661143482610c8c565b6001600160a01b03161461145a5760405162461bcd60e51b81526004016106ef906125ff565b600081815260046020908152604080832080546001600160a01b03199081169091556001600160a01b0387811680865260038552838620805460001901905590871680865283862080546001019055868652600290945282852080549092168417909155905184937fddf252ad1be2c89b69c2b068fc378daa952ba7f163c4a11628f55a4df523b3ef91a4505050565b8054806115395760405162461bcd60e51b815260206004820152601b60248201527f436f756e7465723a2064656372656d656e74206f766572666c6f77000000000060448201526064016106ef565b600019019055565b6007546001600160a01b03163314610ef05760405162461bcd60e51b815260206004820181905260248201527f4f776e61626c653a2063616c6c6572206973206e6f7420746865206f776e657260448201526064016106ef565b600780546001600160a01b038381166001600160a01b0319831681179093556040519116919082907f8be0079c531659141344cd1fd0a4f28419497f9722a3daafe3b4186f6b6457e090600090a35050565b816001600160a01b0316836001600160a01b03160361164e5760405162461bcd60e51b815260206004820152601960248201527f4552433732313a20617070726f766520746f2063616c6c65720000000000000060448201526064016106ef565b6001600160a01b03838116600081815260056020908152604080832094871680845294825291829020805460ff191686151590811790915591519182527f17307eab39ab6107e8899845ad3d59bd9653f200f220920489ca2b5937696c31910160405180910390a3505050565b6116c6848484611379565b6116d2848484846119e2565b610a165760405162461bcd60e51b81526004016106ef90612644565b6108b6828260405180602001604052806000815250611ae3565b6000828152600260205260409020546001600160a01b03166117835760405162461bcd60e51b815260206004820152602e60248201527f45524337323155524953746f726167653a2055524920736574206f66206e6f6e60448201526d32bc34b9ba32b73a103a37b5b2b760911b60648201526084016106ef565b600082815260066020526040902061079082826126e4565b600081116117eb5760405162461bcd60e51b815260206004820152601c60248201527f5072696365206d757374206265206174206c656173742031207765690000000060448201526064016106ef565b60408051608080820183528482526020808301858152338486018181526001606080880182815260008c8152600c88528a90209851895594518883015591516002909701805494511515600160a01b026001600160a81b03199095166001600160a01b039098169790971793909317909555855188815292830187905294820194909452918201929092527f470031062672bc0246e132c723a729c4676710ec663a29e86c88678032daddea910160405180910390a15050565b60606118b08261122e565b60006118c760408051602081019091526000815290565b905060008151116118e75760405180602001604052806000815250611912565b806118f184611b16565b6040516020016119029291906125d0565b6040516020818303038152906040525b9392505050565b61192584848484611ba9565b6001600160a01b0384166119805761197b82600f80546000838152601060205260408120829055600182018355919091527f8d1108e10bcb7c27dddfc02ed9d693a074039d026cf4ea4240b40f7d581ac8020155565b6119a3565b826001600160a01b0316846001600160a01b0316146119a3576119a38483611c31565b6001600160a01b0383166119bf576119ba82611cce565b610a16565b836001600160a01b0316836001600160a01b031614610a1657610a168383611d7d565b60006001600160a01b0384163b15611ad857604051630a85bd0160e11b81526001600160a01b0385169063150b7a0290611a269033908990889088906004016127a4565b6020604051808303816000875af1925050508015611a61575060408051601f3d908101601f19168201909252611a5e918101906127e1565b60015b611abe573d808015611a8f576040519150601f19603f3d011682016040523d82523d6000602084013e611a94565b606091505b508051600003611ab65760405162461bcd60e51b81526004016106ef90612644565b805181602001fd5b6001600160e01b031916630a85bd0160e11b14905061119d565b506001949350505050565b611aed8383611dc1565b611afa60008484846119e2565b6107905760405162461bcd60e51b81526004016106ef90612644565b60606000611b2383611f5a565b600101905060008167ffffffffffffffff811115611b4357611b4361222f565b6040519080825280601f01601f191660200182016040528015611b6d576020820181803683370190505b5090508181016020015b600019016f181899199a1a9b1b9c1cb0b131b232b360811b600a86061a8153600a8504945084611b7757509392505050565b6001811115610a16576001600160a01b03841615611bef576001600160a01b03841660009081526003602052604081208054839290611be99084906127fe565b90915550505b6001600160a01b03831615610a16576001600160a01b03831660009081526003602052604081208054839290611c26908490612588565b909155505050505050565b60006001611c3e84610d49565b611c4891906127fe565b6000838152600e6020526040902054909150808214611c9b576001600160a01b0384166000908152600d602090815260408083208584528252808320548484528184208190558352600e90915290208190555b506000918252600e602090815260408084208490556001600160a01b039094168352600d81528383209183525290812055565b600f54600090611ce0906001906127fe565b600083815260106020526040812054600f8054939450909284908110611d0857611d0861255c565b9060005260206000200154905080600f8381548110611d2957611d2961255c565b600091825260208083209091019290925582815260109091526040808220849055858252812055600f805480611d6157611d61612811565b6001900381819060005260206000200160009055905550505050565b6000611d8883610d49565b6001600160a01b039093166000908152600d602090815260408083208684528252808320859055938252600e9052919091209190915550565b6001600160a01b038216611e175760405162461bcd60e51b815260206004820181905260248201527f4552433732313a206d696e7420746f20746865207a65726f206164647265737360448201526064016106ef565b6000818152600260205260409020546001600160a01b031615611e7c5760405162461bcd60e51b815260206004820152601c60248201527f4552433732313a20746f6b656e20616c7265616479206d696e7465640000000060448201526064016106ef565b611e8a600083836001611919565b6000818152600260205260409020546001600160a01b031615611eef5760405162461bcd60e51b815260206004820152601c60248201527f4552433732313a20746f6b656e20616c7265616479206d696e7465640000000060448201526064016106ef565b6001600160a01b038216600081815260036020908152604080832080546001019055848352600290915280822080546001600160a01b0319168417905551839291907fddf252ad1be2c89b69c2b068fc378daa952ba7f163c4a11628f55a4df523b3ef908290a45050565b60008072184f03e93ff9f4daa797ed6e38ed64bf6a1f0160401b8310611f995772184f03e93ff9f4daa797ed6e38ed64bf6a1f0160401b830492506040015b6d04ee2d6d415b85acef81000000008310611fc5576d04ee2d6d415b85acef8100000000830492506020015b662386f26fc100008310611fe357662386f26fc10000830492506010015b6305f5e1008310611ffb576305f5e100830492506008015b612710831061200f57612710830492506004015b60648310612021576064830492506002015b600a83106105bc5760010192915050565b6040518060800160405280600081526020016000815260200160006001600160a01b031681526020016000151581525090565b6001600160e01b03198116811461122b57600080fd5b60006020828403121561208d57600080fd5b813561191281612065565b60005b838110156120b357818101518382015260200161209b565b50506000910152565b600081518084526120d4816020860160208601612098565b601f01601f19169290920160200192915050565b60208152600061191260208301846120bc565b60006020828403121561210d57600080fd5b5035919050565b80356001600160a01b038116811461212b57600080fd5b919050565b6000806040838503121561214357600080fd5b61214c83612114565b946020939093013593505050565b6000806040838503121561216d57600080fd5b50508035926020909101359150565b60008060006060848603121561219157600080fd5b61219a84612114565b92506121a860208501612114565b9150604084013590509250925092565b6020808252825182820181905260009190848201906040850190845b818110156122235761221083855180518252602080820151908301526040808201516001600160a01b0316908301526060908101511515910152565b92840192608092909201916001016121d4565b50909695505050505050565b634e487b7160e01b600052604160045260246000fd5b600067ffffffffffffffff808411156122605761226061222f565b604051601f8501601f19908116603f011681019082821181831017156122885761228861222f565b816040528093508581528686860111156122a157600080fd5b858560208301376000602087830101525050509392505050565b600082601f8301126122cc57600080fd5b61191283833560208501612245565b6000602082840312156122ed57600080fd5b813567ffffffffffffffff81111561230457600080fd5b61119d848285016122bb565b81518152602080830151908201526040808301516001600160a01b031690820152606080830151151590820152608081016105bc565b60006020828403121561235857600080fd5b61191282612114565b6000806040838503121561237457600080fd5b61237d83612114565b91506020830135801515811461239257600080fd5b809150509250929050565b600080600080608085870312156123b357600080fd5b6123bc85612114565b93506123ca60208601612114565b925060408501359150606085013567ffffffffffffffff8111156123ed57600080fd5b8501601f810187136123fe57600080fd5b61240d87823560208401612245565b91505092959194509250565b6000806040838503121561242c57600080fd5b823567ffffffffffffffff81111561244357600080fd5b61244f858286016122bb565b95602094909401359450505050565b6000806040838503121561247157600080fd5b61247a83612114565b915061248860208401612114565b90509250929050565b600181811c908216806124a557607f821691505b6020821081036124c557634e487b7160e01b600052602260045260246000fd5b50919050565b60208082526024908201527f5072696365206d75737420626520657175616c20746f206c697374696e6720706040820152637269636560e01b606082015260800190565b6020808252602d908201527f4552433732313a2063616c6c6572206973206e6f7420746f6b656e206f776e6560408201526c1c881bdc88185c1c1c9bdd9959609a1b606082015260800190565b634e487b7160e01b600052603260045260246000fd5b634e487b7160e01b600052601160045260246000fd5b808201808211156105bc576105bc612572565b6000600182016125ad576125ad612572565b5060010190565b600082516125c6818460208701612098565b9190910192915050565b600083516125e2818460208801612098565b8351908301906125f6818360208801612098565b01949350505050565b60208082526025908201527f4552433732313a207472616e736665722066726f6d20696e636f72726563742060408201526437bbb732b960d91b606082015260800190565b60208082526032908201527f4552433732313a207472616e7366657220746f206e6f6e20455243373231526560408201527131b2b4bb32b91034b6b83632b6b2b73a32b960711b606082015260800190565b601f82111561079057600081815260208120601f850160051c810160208610156126bd5750805b601f850160051c820191505b818110156126dc578281556001016126c9565b505050505050565b815167ffffffffffffffff8111156126fe576126fe61222f565b6127128161270c8454612491565b84612696565b602080601f831160018114612747576000841561272f5750858301515b600019600386901b1c1916600185901b1785556126dc565b600085815260208120601f198616915b8281101561277657888601518255948401946001909101908401612757565b50858210156127945787850151600019600388901b60f8161c191681555b5050505050600190811b01905550565b6001600160a01b03858116825284166020820152604081018390526080606082018190526000906127d7908301846120bc565b9695505050505050565b6000602082840312156127f357600080fd5b815161191281612065565b818103818111156105bc576105bc612572565b634e487b7160e01b600052603160045260246000fdfea2646970667358221220fc7fbf3991da1dcab51d445edaaf2907a9e5d317cb6825d1a7d8d8d7e380943a64736f6c63430008110033",
    "sourcePath": "d:/SE final/nftpool-react/contracts/NftMarketplace.sol",
    "compiler": {
        "name": "solc",
        "version": "0.8.17+commit.8df45f5f"
    },
    "functionHashes": {
        "approve(address,uint256)": "095ea7b3",
        "balanceOf(address)": "70a08231",
        "buyNft(uint256)": "243adbdd",
        "getAllNftsOnSale()": "36b536be",
        "getApproved(uint256)": "081812fc",
        "getNftItem(uint256)": "6f1a0af5",
        "getOwnedNfts()": "70cbcb43",
        "isApprovedForAll(address,address)": "e985e9c5",
        "listedItemsCount()": "ccb4918d",
        "listingPrice()": "c78f19f9",
        "mintToken(string,uint256)": "c046372c",
        "name()": "06fdde03",
        "owner()": "8da5cb5b",
        "ownerOf(uint256)": "6352211e",
        "placeNftOnSale(uint256,uint256)": "21f422e5",
        "renounceOwnership()": "715018a6",
        "safeTransferFrom(address,address,uint256)": "42842e0e",
        "safeTransferFrom(address,address,uint256,bytes)": "b88d4fde",
        "setApprovalForAll(address,bool)": "a22cb465",
        "setListingPrice(uint256)": "7c726b69",
        "supportsInterface(bytes4)": "01ffc9a7",
        "symbol()": "95d89b41",
        "tokenByIndex(uint256)": "4f6ccce7",
        "tokenOfOwnerByIndex(address,uint256)": "2f745c59",
        "tokenURI(uint256)": "c87b56dd",
        "tokenURIExists(string)": "43d32ae7",
        "totalSupply()": "18160ddd",
        "transferFrom(address,address,uint256)": "23b872dd",
        "transferOwnership(address)": "f2fde38b"
    },
    "gasEstimates": {
        "creation": {
            "codeDepositCost": "2066600",
            "executionCost": "infinite",
            "totalCost": "infinite"
        },
        "external": {
            "approve(address,uint256)": "infinite",
            "balanceOf(address)": "2657",
            "buyNft(uint256)": "infinite",
            "getAllNftsOnSale()": "infinite",
            "getApproved(uint256)": "4815",
            "getNftItem(uint256)": "7177",
            "getOwnedNfts()": "infinite",
            "isApprovedForAll(address,address)": "infinite",
            "listedItemsCount()": "2396",
            "listingPrice()": "2406",
            "mintToken(string,uint256)": "infinite",
            "name()": "infinite",
            "owner()": "2420",
            "ownerOf(uint256)": "2649",
            "placeNftOnSale(uint256,uint256)": "77579",
            "renounceOwnership()": "infinite",
            "safeTransferFrom(address,address,uint256)": "infinite",
            "safeTransferFrom(address,address,uint256,bytes)": "infinite",
            "setApprovalForAll(address,bool)": "26728",
            "setListingPrice(uint256)": "24578",
            "supportsInterface(bytes4)": "557",
            "symbol()": "infinite",
            "tokenByIndex(uint256)": "6804",
            "tokenOfOwnerByIndex(address,uint256)": "4998",
            "tokenURI(uint256)": "infinite",
            "tokenURIExists(string)": "infinite",
            "totalSupply()": "2349",
            "transferFrom(address,address,uint256)": "infinite",
            "transferOwnership(address)": "28446"
        },
        "internal": {
            "_addTokenToAllTokensEnumeration(uint256)": "infinite",
            "_addTokenToOwnerEnumeration(address,uint256)": "infinite",
            "_beforeTokenTransfer(address,address,uint256,uint256)": "infinite",
            "_createNftItem(uint256,uint256)": "infinite",
            "_removeTokenFromAllTokensEnumeration(uint256)": "89524",
            "_removeTokenFromOwnerEnumeration(address,uint256)": "infinite"
        }
    }
}