{
    "contractName": "NftMarketplace",
    "abi": [
        {
            "inputs": [],
            "stateMutability": "nonpayable",
            "type": "constructor"
        },
        {
            "anonymous": false,
            "inputs": [
                {
                    "indexed": true,
                    "internalType": "address",
                    "name": "owner",
                    "type": "address"
                },
                {
                    "indexed": true,
                    "internalType": "address",
                    "name": "approved",
                    "type": "address"
                },
                {
                    "indexed": true,
                    "internalType": "uint256",
                    "name": "tokenId",
                    "type": "uint256"
                }
            ],
            "name": "Approval",
            "type": "event"
        },
        {
            "anonymous": false,
            "inputs": [
                {
                    "indexed": true,
                    "internalType": "address",
                    "name": "owner",
                    "type": "address"
                },
                {
                    "indexed": true,
                    "internalType": "address",
                    "name": "operator",
                    "type": "address"
                },
                {
                    "indexed": false,
                    "internalType": "bool",
                    "name": "approved",
                    "type": "bool"
                }
            ],
            "name": "ApprovalForAll",
            "type": "event"
        },
        {
            "anonymous": false,
            "inputs": [
                {
                    "indexed": false,
                    "internalType": "uint256",
                    "name": "tokenId",
                    "type": "uint256"
                },
                {
                    "indexed": false,
                    "internalType": "uint256",
                    "name": "price",
                    "type": "uint256"
                },
                {
                    "indexed": false,
                    "internalType": "address",
                    "name": "creator",
                    "type": "address"
                },
                {
                    "indexed": false,
                    "internalType": "bool",
                    "name": "isListed",
                    "type": "bool"
                }
            ],
            "name": "NftItemCreated",
            "type": "event"
        },
        {
            "anonymous": false,
            "inputs": [
                {
                    "indexed": true,
                    "internalType": "address",
                    "name": "previousOwner",
                    "type": "address"
                },
                {
                    "indexed": true,
                    "internalType": "address",
                    "name": "newOwner",
                    "type": "address"
                }
            ],
            "name": "OwnershipTransferred",
            "type": "event"
        },
        {
            "anonymous": false,
            "inputs": [
                {
                    "indexed": true,
                    "internalType": "address",
                    "name": "from",
                    "type": "address"
                },
                {
                    "indexed": true,
                    "internalType": "address",
                    "name": "to",
                    "type": "address"
                },
                {
                    "indexed": true,
                    "internalType": "uint256",
                    "name": "tokenId",
                    "type": "uint256"
                }
            ],
            "name": "Transfer",
            "type": "event"
        },
        {
            "inputs": [
                {
                    "internalType": "address",
                    "name": "to",
                    "type": "address"
                },
                {
                    "internalType": "uint256",
                    "name": "tokenId",
                    "type": "uint256"
                }
            ],
            "name": "approve",
            "outputs": [],
            "stateMutability": "nonpayable",
            "type": "function"
        },
        {
            "inputs": [
                {
                    "internalType": "address",
                    "name": "owner",
                    "type": "address"
                }
            ],
            "name": "balanceOf",
            "outputs": [
                {
                    "internalType": "uint256",
                    "name": "",
                    "type": "uint256"
                }
            ],
            "stateMutability": "view",
            "type": "function"
        },
        {
            "inputs": [
                {
                    "internalType": "uint256",
                    "name": "tokenId",
                    "type": "uint256"
                }
            ],
            "name": "buyNft",
            "outputs": [],
            "stateMutability": "payable",
            "type": "function"
        },
        {
            "inputs": [],
            "name": "getAllNftsOnSale",
            "outputs": [
                {
                    "components": [
                        {
                            "internalType": "uint256",
                            "name": "tokenId",
                            "type": "uint256"
                        },
                        {
                            "internalType": "uint256",
                            "name": "price",
                            "type": "uint256"
                        },
                        {
                            "internalType": "address",
                            "name": "creator",
                            "type": "address"
                        },
                        {
                            "internalType": "bool",
                            "name": "isListed",
                            "type": "bool"
                        }
                    ],
                    "internalType": "struct NftMarketplace.NftItem[]",
                    "name": "",
                    "type": "tuple[]"
                }
            ],
            "stateMutability": "view",
            "type": "function"
        },
        {
            "inputs": [
                {
                    "internalType": "uint256",
                    "name": "tokenId",
                    "type": "uint256"
                }
            ],
            "name": "getApproved",
            "outputs": [
                {
                    "internalType": "address",
                    "name": "",
                    "type": "address"
                }
            ],
            "stateMutability": "view",
            "type": "function"
        },
        {
            "inputs": [
                {
                    "internalType": "uint256",
                    "name": "tokenId",
                    "type": "uint256"
                }
            ],
            "name": "getNftItem",
            "outputs": [
                {
                    "components": [
                        {
                            "internalType": "uint256",
                            "name": "tokenId",
                            "type": "uint256"
                        },
                        {
                            "internalType": "uint256",
                            "name": "price",
                            "type": "uint256"
                        },
                        {
                            "internalType": "address",
                            "name": "creator",
                            "type": "address"
                        },
                        {
                            "internalType": "bool",
                            "name": "isListed",
                            "type": "bool"
                        }
                    ],
                    "internalType": "struct NftMarketplace.NftItem",
                    "name": "",
                    "type": "tuple"
                }
            ],
            "stateMutability": "view",
            "type": "function"
        },
        {
            "inputs": [],
            "name": "getOwnedNfts",
            "outputs": [
                {
                    "components": [
                        {
                            "internalType": "uint256",
                            "name": "tokenId",
                            "type": "uint256"
                        },
                        {
                            "internalType": "uint256",
                            "name": "price",
                            "type": "uint256"
                        },
                        {
                            "internalType": "address",
                            "name": "creator",
                            "type": "address"
                        },
                        {
                            "internalType": "bool",
                            "name": "isListed",
                            "type": "bool"
                        }
                    ],
                    "internalType": "struct NftMarketplace.NftItem[]",
                    "name": "",
                    "type": "tuple[]"
                }
            ],
            "stateMutability": "view",
            "type": "function"
        },
        {
            "inputs": [],
            "name": "getTransactions",
            "outputs": [
                {
                    "components": [
                        {
                            "internalType": "address",
                            "name": "from",
                            "type": "address"
                        },
                        {
                            "internalType": "address",
                            "name": "to",
                            "type": "address"
                        },
                        {
                            "internalType": "uint256",
                            "name": "tokenId",
                            "type": "uint256"
                        },
                        {
                            "internalType": "uint256",
                            "name": "price",
                            "type": "uint256"
                        },
                        {
                            "internalType": "uint256",
                            "name": "timestamp",
                            "type": "uint256"
                        }
                    ],
                    "internalType": "struct NftMarketplace.Transaction[]",
                    "name": "",
                    "type": "tuple[]"
                }
            ],
            "stateMutability": "view",
            "type": "function"
        },
        {
            "inputs": [
                {
                    "internalType": "address",
                    "name": "owner",
                    "type": "address"
                },
                {
                    "internalType": "address",
                    "name": "operator",
                    "type": "address"
                }
            ],
            "name": "isApprovedForAll",
            "outputs": [
                {
                    "internalType": "bool",
                    "name": "",
                    "type": "bool"
                }
            ],
            "stateMutability": "view",
            "type": "function"
        },
        {
            "inputs": [],
            "name": "listedItemsCount",
            "outputs": [
                {
                    "internalType": "uint256",
                    "name": "",
                    "type": "uint256"
                }
            ],
            "stateMutability": "view",
            "type": "function"
        },
        {
            "inputs": [],
            "name": "listingPrice",
            "outputs": [
                {
                    "internalType": "uint256",
                    "name": "",
                    "type": "uint256"
                }
            ],
            "stateMutability": "view",
            "type": "function"
        },
        {
            "inputs": [
                {
                    "internalType": "string",
                    "name": "tokenURI",
                    "type": "string"
                },
                {
                    "internalType": "uint256",
                    "name": "price",
                    "type": "uint256"
                }
            ],
            "name": "mintToken",
            "outputs": [
                {
                    "internalType": "uint256",
                    "name": "",
                    "type": "uint256"
                }
            ],
            "stateMutability": "payable",
            "type": "function"
        },
        {
            "inputs": [],
            "name": "name",
            "outputs": [
                {
                    "internalType": "string",
                    "name": "",
                    "type": "string"
                }
            ],
            "stateMutability": "view",
            "type": "function"
        },
        {
            "inputs": [],
            "name": "owner",
            "outputs": [
                {
                    "internalType": "address",
                    "name": "",
                    "type": "address"
                }
            ],
            "stateMutability": "view",
            "type": "function"
        },
        {
            "inputs": [
                {
                    "internalType": "uint256",
                    "name": "tokenId",
                    "type": "uint256"
                }
            ],
            "name": "ownerOf",
            "outputs": [
                {
                    "internalType": "address",
                    "name": "",
                    "type": "address"
                }
            ],
            "stateMutability": "view",
            "type": "function"
        },
        {
            "inputs": [
                {
                    "internalType": "uint256",
                    "name": "tokenId",
                    "type": "uint256"
                },
                {
                    "internalType": "uint256",
                    "name": "newPrice",
                    "type": "uint256"
                }
            ],
            "name": "placeNftOnSale",
            "outputs": [],
            "stateMutability": "payable",
            "type": "function"
        },
        {
            "inputs": [],
            "name": "renounceOwnership",
            "outputs": [],
            "stateMutability": "nonpayable",
            "type": "function"
        },
        {
            "inputs": [
                {
                    "internalType": "address",
                    "name": "from",
                    "type": "address"
                },
                {
                    "internalType": "address",
                    "name": "to",
                    "type": "address"
                },
                {
                    "internalType": "uint256",
                    "name": "tokenId",
                    "type": "uint256"
                }
            ],
            "name": "safeTransferFrom",
            "outputs": [],
            "stateMutability": "nonpayable",
            "type": "function"
        },
        {
            "inputs": [
                {
                    "internalType": "address",
                    "name": "from",
                    "type": "address"
                },
                {
                    "internalType": "address",
                    "name": "to",
                    "type": "address"
                },
                {
                    "internalType": "uint256",
                    "name": "tokenId",
                    "type": "uint256"
                },
                {
                    "internalType": "bytes",
                    "name": "data",
                    "type": "bytes"
                }
            ],
            "name": "safeTransferFrom",
            "outputs": [],
            "stateMutability": "nonpayable",
            "type": "function"
        },
        {
            "inputs": [
                {
                    "internalType": "address",
                    "name": "operator",
                    "type": "address"
                },
                {
                    "internalType": "bool",
                    "name": "approved",
                    "type": "bool"
                }
            ],
            "name": "setApprovalForAll",
            "outputs": [],
            "stateMutability": "nonpayable",
            "type": "function"
        },
        {
            "inputs": [
                {
                    "internalType": "uint256",
                    "name": "newPrice",
                    "type": "uint256"
                }
            ],
            "name": "setListingPrice",
            "outputs": [],
            "stateMutability": "nonpayable",
            "type": "function"
        },
        {
            "inputs": [
                {
                    "internalType": "bytes4",
                    "name": "interfaceId",
                    "type": "bytes4"
                }
            ],
            "name": "supportsInterface",
            "outputs": [
                {
                    "internalType": "bool",
                    "name": "",
                    "type": "bool"
                }
            ],
            "stateMutability": "view",
            "type": "function"
        },
        {
            "inputs": [],
            "name": "symbol",
            "outputs": [
                {
                    "internalType": "string",
                    "name": "",
                    "type": "string"
                }
            ],
            "stateMutability": "view",
            "type": "function"
        },
        {
            "inputs": [
                {
                    "internalType": "uint256",
                    "name": "index",
                    "type": "uint256"
                }
            ],
            "name": "tokenByIndex",
            "outputs": [
                {
                    "internalType": "uint256",
                    "name": "",
                    "type": "uint256"
                }
            ],
            "stateMutability": "view",
            "type": "function"
        },
        {
            "inputs": [
                {
                    "internalType": "address",
                    "name": "owner",
                    "type": "address"
                },
                {
                    "internalType": "uint256",
                    "name": "index",
                    "type": "uint256"
                }
            ],
            "name": "tokenOfOwnerByIndex",
            "outputs": [
                {
                    "internalType": "uint256",
                    "name": "",
                    "type": "uint256"
                }
            ],
            "stateMutability": "view",
            "type": "function"
        },
        {
            "inputs": [
                {
                    "internalType": "uint256",
                    "name": "tokenId",
                    "type": "uint256"
                }
            ],
            "name": "tokenURI",
            "outputs": [
                {
                    "internalType": "string",
                    "name": "",
                    "type": "string"
                }
            ],
            "stateMutability": "view",
            "type": "function"
        },
        {
            "inputs": [
                {
                    "internalType": "string",
                    "name": "tokenURI",
                    "type": "string"
                }
            ],
            "name": "tokenURIExists",
            "outputs": [
                {
                    "internalType": "bool",
                    "name": "",
                    "type": "bool"
                }
            ],
            "stateMutability": "view",
            "type": "function"
        },
        {
            "inputs": [],
            "name": "totalSupply",
            "outputs": [
                {
                    "internalType": "uint256",
                    "name": "",
                    "type": "uint256"
                }
            ],
            "stateMutability": "view",
            "type": "function"
        },
        {
            "inputs": [
                {
                    "internalType": "address",
                    "name": "from",
                    "type": "address"
                },
                {
                    "internalType": "address",
                    "name": "to",
                    "type": "address"
                },
                {
                    "internalType": "uint256",
                    "name": "tokenId",
                    "type": "uint256"
                }
            ],
            "name": "transferFrom",
            "outputs": [],
            "stateMutability": "nonpayable",
            "type": "function"
        },
        {
            "inputs": [
                {
                    "internalType": "address",
                    "name": "newOwner",
                    "type": "address"
                }
            ],
            "name": "transferOwnership",
            "outputs": [],
            "stateMutability": "nonpayable",
            "type": "function"
        }
    ],
    "bytecode": "60806040526658d15e176280006008553480156200001c57600080fd5b5060405180604001604052806006815260200165105c9d13919560d21b815250604051806040016040528060048152602001631053919560e21b81525081600090816200006a919062000197565b50600162000079828262000197565b50505062000096620000906200009c60201b60201c565b620000a0565b62000263565b3390565b600780546001600160a01b038381166001600160a01b0319831681179093556040519116919082907f8be0079c531659141344cd1fd0a4f28419497f9722a3daafe3b4186f6b6457e090600090a35050565b634e487b7160e01b600052604160045260246000fd5b600181811c908216806200011d57607f821691505b6020821081036200013e57634e487b7160e01b600052602260045260246000fd5b50919050565b601f8211156200019257600081815260208120601f850160051c810160208610156200016d5750805b601f850160051c820191505b818110156200018e5782815560010162000179565b5050505b505050565b81516001600160401b03811115620001b357620001b3620000f2565b620001cb81620001c4845462000108565b8462000144565b602080601f831160018114620002035760008415620001ea5750858301515b600019600386901b1c1916600185901b1785556200018e565b600085815260208120601f198616915b82811015620002345788860151825594840194600190910190840162000213565b5085821015620002535787850151600019600388901b60f8161c191681555b5050505050600190811b01905550565b61299d80620002736000396000f3fe6080604052600436106101cd5760003560e01c806370a08231116100f7578063a22cb46511610095578063c87b56dd11610064578063c87b56dd146104ff578063ccb4918d1461051f578063e985e9c514610534578063f2fde38b1461057d57600080fd5b8063a22cb46514610496578063b88d4fde146104b6578063c046372c146104d6578063c78f19f9146104e957600080fd5b80637c726b69116100d15780637c726b691461042157806383920e90146104415780638da5cb5b1461046357806395d89b411461048157600080fd5b806370a08231146103d757806370cbcb43146103f7578063715018a61461040c57600080fd5b8063243adbdd1161016f57806343d32ae71161013e57806343d32ae71461034a5780634f6ccce71461036a5780636352211e1461038a5780636f1a0af5146103aa57600080fd5b8063243adbdd146102d55780632f745c59146102e857806336b536be1461030857806342842e0e1461032a57600080fd5b8063095ea7b3116101ab578063095ea7b31461026157806318160ddd1461028357806321f422e5146102a257806323b872dd146102b557600080fd5b806301ffc9a7146101d257806306fdde0314610207578063081812fc14610229575b600080fd5b3480156101de57600080fd5b506101f26101ed366004612141565b61059d565b60405190151581526020015b60405180910390f35b34801561021357600080fd5b5061021c6105ef565b6040516101fe91906121ae565b34801561023557600080fd5b506102496102443660046121c1565b610681565b6040516001600160a01b0390911681526020016101fe565b34801561026d57600080fd5b5061028161027c3660046121f6565b6106a8565b005b34801561028f57600080fd5b50600f545b6040519081526020016101fe565b6102816102b0366004612220565b6107c2565b3480156102c157600080fd5b506102816102d0366004612242565b6108e7565b6102816102e33660046121c1565b610918565b3480156102f457600080fd5b506102946103033660046121f6565b610a49565b34801561031457600080fd5b5061031d610ac1565b6040516101fe919061227e565b34801561033657600080fd5b50610281610345366004612242565b610bfa565b34801561035657600080fd5b506101f26103653660046123a1565b610c15565b34801561037657600080fd5b506102946103853660046121c1565b610c45565b34801561039657600080fd5b506102496103a53660046121c1565b610cb9565b3480156103b657600080fd5b506103ca6103c53660046121c1565b610d19565b6040516101fe91906123d6565b3480156103e357600080fd5b506102946103f236600461240c565b610d76565b34801561040357600080fd5b5061031d610dfc565b34801561041857600080fd5b50610281610f0b565b34801561042d57600080fd5b5061028161043c3660046121c1565b610f1f565b34801561044d57600080fd5b50610456610f7c565b6040516101fe9190612427565b34801561046f57600080fd5b506007546001600160a01b0316610249565b34801561048d57600080fd5b5061021c611015565b3480156104a257600080fd5b506102816104b13660046124a1565b611024565b3480156104c257600080fd5b506102816104d13660046124dd565b61102f565b6102946104e4366004612559565b611061565b3480156104f557600080fd5b5061029460085481565b34801561050b57600080fd5b5061021c61051a3660046121c1565b61115b565b34801561052b57600080fd5b5061029461126b565b34801561054057600080fd5b506101f261054f36600461259e565b6001600160a01b03918216600090815260056020908152604080832093909416825291909152205460ff1690565b34801561058957600080fd5b5061028161059836600461240c565b61127b565b60006001600160e01b031982166380ac58cd60e01b14806105ce57506001600160e01b03198216635b5e139f60e01b145b806105e957506301ffc9a760e01b6001600160e01b03198316145b92915050565b6060600080546105fe906125d1565b80601f016020809104026020016040519081016040528092919081815260200182805461062a906125d1565b80156106775780601f1061064c57610100808354040283529160200191610677565b820191906000526020600020905b81548152906001019060200180831161065a57829003601f168201915b5050505050905090565b600061068c826112f4565b506000908152600460205260409020546001600160a01b031690565b60006106b382610cb9565b9050806001600160a01b0316836001600160a01b0316036107255760405162461bcd60e51b815260206004820152602160248201527f4552433732313a20617070726f76616c20746f2063757272656e74206f776e656044820152603960f91b60648201526084015b60405180910390fd5b336001600160a01b03821614806107415750610741813361054f565b6107b35760405162461bcd60e51b815260206004820152603d60248201527f4552433732313a20617070726f76652063616c6c6572206973206e6f7420746f60448201527f6b656e206f776e6572206f7220617070726f76656420666f7220616c6c000000606482015260840161071c565b6107bd8383611353565b505050565b336107cc83610cb9565b6001600160a01b0316146108225760405162461bcd60e51b815260206004820152601d60248201527f596f7520617265206e6f74206f776e6572206f662074686973206e6674000000604482015260640161071c565b6000828152600c6020526040902060020154600160a01b900460ff161561088b5760405162461bcd60e51b815260206004820152601760248201527f4974656d20697320616c7265616479206f6e2073616c65000000000000000000604482015260640161071c565b60085434146108ac5760405162461bcd60e51b815260040161071c9061260b565b6000828152600c6020526040902060028101805460ff60a01b1916600160a01b1790556001018190556108e3600980546001019055565b5050565b6108f133826113c1565b61090d5760405162461bcd60e51b815260040161071c9061264f565b6107bd83838361143f565b6000818152600c60205260408120600101549061093483610cb9565b90506001600160a01b038116330361098e5760405162461bcd60e51b815260206004820152601860248201527f596f7520616c7265616479206f776e2074686973204e46540000000000000000604482015260640161071c565b8134146109dd5760405162461bcd60e51b815260206004820152601e60248201527f506c65617365207375626d6974207468652061736b696e672070726963650000604482015260640161071c565b6000838152600c60205260409020600201805460ff60a01b19169055610a0360096115b0565b610a0e81338561143f565b6040516001600160a01b038216903480156108fc02916000818181858888f19350505050158015610a43573d6000803e3d6000fd5b50505050565b6000610a5483610d76565b8210610a985760405162461bcd60e51b8152602060048201526013602482015272496e646578206f7574206f6620626f756e647360681b604482015260640161071c565b506001600160a01b03919091166000908152600d60209081526040808320938352929052205490565b60606000610ace600f5490565b9050600080610adc60095490565b67ffffffffffffffff811115610af457610af46122f5565b604051908082528060200260200182016040528015610b2d57816020015b610b1a6120f8565b815260200190600190039081610b125790505b50905060005b83811015610bf2576000610b4682610c45565b6000818152600c60205260409020600281015491925090600160a01b900460ff161515600103610bdd5760408051608081018252825481526001830154602082015260028301546001600160a01b03811692820192909252600160a01b90910460ff16151560608201528451859087908110610bc457610bc461269c565b6020908102919091010152610bda6001866126c8565b94505b50508080610bea906126db565b915050610b33565b509392505050565b6107bd8383836040518060200160405280600081525061102f565b6000600b82604051610c2791906126f4565b9081526040519081900360200190205460ff16151560011492915050565b6000610c50600f5490565b8210610c945760405162461bcd60e51b8152602060048201526013602482015272496e646578206f7574206f6620626f756e647360681b604482015260640161071c565b600f8281548110610ca757610ca761269c565b90600052602060002001549050919050565b6000818152600260205260408120546001600160a01b0316806105e95760405162461bcd60e51b8152602060048201526018602482015277115490cdcc8c4e881a5b9d985b1a59081d1bdad95b88125160421b604482015260640161071c565b610d216120f8565b506000908152600c6020908152604091829020825160808101845281548152600182015492810192909252600201546001600160a01b03811692820192909252600160a01b90910460ff161515606082015290565b60006001600160a01b038216610de05760405162461bcd60e51b815260206004820152602960248201527f4552433732313a2061646472657373207a65726f206973206e6f7420612076616044820152683634b21037bbb732b960b91b606482015260840161071c565b506001600160a01b031660009081526003602052604090205490565b60606000610e0933610d76565b905060008167ffffffffffffffff811115610e2657610e266122f5565b604051908082528060200260200182016040528015610e5f57816020015b610e4c6120f8565b815260200190600190039081610e445790505b50905060005b82811015610f04576000610e793383610a49565b6000818152600c602090815260409182902082516080810184528154815260018201549281019290925260028101546001600160a01b03811693830193909352600160a01b90920460ff161515606082015285519293509091859085908110610ee457610ee461269c565b602002602001018190525050508080610efc906126db565b915050610e65565b5092915050565b610f13611607565b610f1d6000611661565b565b610f27611607565b60008111610f775760405162461bcd60e51b815260206004820152601c60248201527f5072696365206d757374206265206174206c6561737420312077656900000000604482015260640161071c565b600855565b60606010805480602002602001604051908101604052809291908181526020016000905b8282101561100c5760008481526020908190206040805160a0810182526005860290920180546001600160a01b03908116845260018083015490911684860152600282015492840192909252600381015460608401526004015460808301529083529092019101610fa0565b50505050905090565b6060600180546105fe906125d1565b6108e33383836116b3565b61103933836113c1565b6110555760405162461bcd60e51b815260040161071c9061264f565b610a4384848484611781565b600061106c83610c15565b156110b95760405162461bcd60e51b815260206004820152601860248201527f546f6b656e2055524920616c7265616479206578697374730000000000000000604482015260640161071c565b60085434146110da5760405162461bcd60e51b815260040161071c9061260b565b6110e8600a80546001019055565b6110f6600980546001019055565b6000611101600a5490565b905061110d33826117b4565b61111781856117ce565b6111218184611861565b6001600b8560405161113391906126f4565b908152604051908190036020019020805491151560ff19909216919091179055905092915050565b6060611166826112f4565b6000828152600660205260408120805461117f906125d1565b80601f01602080910402602001604051908101604052809291908181526020018280546111ab906125d1565b80156111f85780601f106111cd576101008083540402835291602001916111f8565b820191906000526020600020905b8154815290600101906020018083116111db57829003601f168201915b50505050509050600061121660408051602081019091526000815290565b90508051600003611228575092915050565b81511561125a578082604051602001611242929190612710565b60405160208183030381529060405292505050919050565b6112638461196b565b949350505050565b600061127660095490565b905090565b611283611607565b6001600160a01b0381166112e85760405162461bcd60e51b815260206004820152602660248201527f4f776e61626c653a206e6577206f776e657220697320746865207a65726f206160448201526564647265737360d01b606482015260840161071c565b6112f181611661565b50565b6000818152600260205260409020546001600160a01b03166112f15760405162461bcd60e51b8152602060048201526018602482015277115490cdcc8c4e881a5b9d985b1a59081d1bdad95b88125160421b604482015260640161071c565b600081815260046020526040902080546001600160a01b0319166001600160a01b038416908117909155819061138882610cb9565b6001600160a01b03167f8c5be1e5ebec7d5bd14f71427d1e84f3dd0314c0f7b2291e5b200ac8c7c3b92560405160405180910390a45050565b6000806113cd83610cb9565b9050806001600160a01b0316846001600160a01b0316148061141457506001600160a01b0380821660009081526005602090815260408083209388168352929052205460ff165b806112635750836001600160a01b031661142d84610681565b6001600160a01b031614949350505050565b826001600160a01b031661145282610cb9565b6001600160a01b0316146114785760405162461bcd60e51b815260040161071c9061273f565b6001600160a01b0382166114da5760405162461bcd60e51b8152602060048201526024808201527f4552433732313a207472616e7366657220746f20746865207a65726f206164646044820152637265737360e01b606482015260840161071c565b6114e783838360016119df565b826001600160a01b03166114fa82610cb9565b6001600160a01b0316146115205760405162461bcd60e51b815260040161071c9061273f565b600081815260046020908152604080832080546001600160a01b03199081169091556001600160a01b0387811680865260038552838620805460001901905590871680865283862080546001019055868652600290945282852080549092168417909155905184937fddf252ad1be2c89b69c2b068fc378daa952ba7f163c4a11628f55a4df523b3ef91a4505050565b8054806115ff5760405162461bcd60e51b815260206004820152601b60248201527f436f756e7465723a2064656372656d656e74206f766572666c6f770000000000604482015260640161071c565b600019019055565b6007546001600160a01b03163314610f1d5760405162461bcd60e51b815260206004820181905260248201527f4f776e61626c653a2063616c6c6572206973206e6f7420746865206f776e6572604482015260640161071c565b600780546001600160a01b038381166001600160a01b0319831681179093556040519116919082907f8be0079c531659141344cd1fd0a4f28419497f9722a3daafe3b4186f6b6457e090600090a35050565b816001600160a01b0316836001600160a01b0316036117145760405162461bcd60e51b815260206004820152601960248201527f4552433732313a20617070726f766520746f2063616c6c657200000000000000604482015260640161071c565b6001600160a01b03838116600081815260056020908152604080832094871680845294825291829020805460ff191686151590811790915591519182527f17307eab39ab6107e8899845ad3d59bd9653f200f220920489ca2b5937696c31910160405180910390a3505050565b61178c84848461143f565b61179884848484611aa8565b610a435760405162461bcd60e51b815260040161071c90612784565b6108e3828260405180602001604052806000815250611ba9565b6000828152600260205260409020546001600160a01b03166118495760405162461bcd60e51b815260206004820152602e60248201527f45524337323155524953746f726167653a2055524920736574206f66206e6f6e60448201526d32bc34b9ba32b73a103a37b5b2b760911b606482015260840161071c565b60008281526006602052604090206107bd8282612824565b600081116118b15760405162461bcd60e51b815260206004820152601c60248201527f5072696365206d757374206265206174206c6561737420312077656900000000604482015260640161071c565b60408051608080820183528482526020808301858152338486018181526001606080880182815260008c8152600c88528a90209851895594518883015591516002909701805494511515600160a01b026001600160a81b03199095166001600160a01b039098169790971793909317909555855188815292830187905294820194909452918201929092527f470031062672bc0246e132c723a729c4676710ec663a29e86c88678032daddea910160405180910390a15050565b6060611976826112f4565b600061198d60408051602081019091526000815290565b905060008151116119ad57604051806020016040528060008152506119d8565b806119b784611bdc565b6040516020016119c8929190612710565b6040516020818303038152906040525b9392505050565b6119eb84848484611c6f565b6001600160a01b038416611a4657611a4182600f80546000838152601160205260408120829055600182018355919091527f8d1108e10bcb7c27dddfc02ed9d693a074039d026cf4ea4240b40f7d581ac8020155565b611a69565b826001600160a01b0316846001600160a01b031614611a6957611a698483611cf7565b6001600160a01b038316611a8557611a8082611d94565b610a43565b836001600160a01b0316836001600160a01b031614610a4357610a438383611e43565b60006001600160a01b0384163b15611b9e57604051630a85bd0160e11b81526001600160a01b0385169063150b7a0290611aec9033908990889088906004016128e4565b6020604051808303816000875af1925050508015611b27575060408051601f3d908101601f19168201909252611b2491810190612921565b60015b611b84573d808015611b55576040519150601f19603f3d011682016040523d82523d6000602084013e611b5a565b606091505b508051600003611b7c5760405162461bcd60e51b815260040161071c90612784565b805181602001fd5b6001600160e01b031916630a85bd0160e11b149050611263565b506001949350505050565b611bb38383611e87565b611bc06000848484611aa8565b6107bd5760405162461bcd60e51b815260040161071c90612784565b60606000611be983612020565b600101905060008167ffffffffffffffff811115611c0957611c096122f5565b6040519080825280601f01601f191660200182016040528015611c33576020820181803683370190505b5090508181016020015b600019016f181899199a1a9b1b9c1cb0b131b232b360811b600a86061a8153600a8504945084611c3d57509392505050565b6001811115610a43576001600160a01b03841615611cb5576001600160a01b03841660009081526003602052604081208054839290611caf90849061293e565b90915550505b6001600160a01b03831615610a43576001600160a01b03831660009081526003602052604081208054839290611cec9084906126c8565b909155505050505050565b60006001611d0484610d76565b611d0e919061293e565b6000838152600e6020526040902054909150808214611d61576001600160a01b0384166000908152600d602090815260408083208584528252808320548484528184208190558352600e90915290208190555b506000918252600e602090815260408084208490556001600160a01b039094168352600d81528383209183525290812055565b600f54600090611da69060019061293e565b600083815260116020526040812054600f8054939450909284908110611dce57611dce61269c565b9060005260206000200154905080600f8381548110611def57611def61269c565b600091825260208083209091019290925582815260119091526040808220849055858252812055600f805480611e2757611e27612951565b6001900381819060005260206000200160009055905550505050565b6000611e4e83610d76565b6001600160a01b039093166000908152600d602090815260408083208684528252808320859055938252600e9052919091209190915550565b6001600160a01b038216611edd5760405162461bcd60e51b815260206004820181905260248201527f4552433732313a206d696e7420746f20746865207a65726f2061646472657373604482015260640161071c565b6000818152600260205260409020546001600160a01b031615611f425760405162461bcd60e51b815260206004820152601c60248201527f4552433732313a20746f6b656e20616c7265616479206d696e74656400000000604482015260640161071c565b611f506000838360016119df565b6000818152600260205260409020546001600160a01b031615611fb55760405162461bcd60e51b815260206004820152601c60248201527f4552433732313a20746f6b656e20616c7265616479206d696e74656400000000604482015260640161071c565b6001600160a01b038216600081815260036020908152604080832080546001019055848352600290915280822080546001600160a01b0319168417905551839291907fddf252ad1be2c89b69c2b068fc378daa952ba7f163c4a11628f55a4df523b3ef908290a45050565b60008072184f03e93ff9f4daa797ed6e38ed64bf6a1f0160401b831061205f5772184f03e93ff9f4daa797ed6e38ed64bf6a1f0160401b830492506040015b6d04ee2d6d415b85acef8100000000831061208b576d04ee2d6d415b85acef8100000000830492506020015b662386f26fc1000083106120a957662386f26fc10000830492506010015b6305f5e10083106120c1576305f5e100830492506008015b61271083106120d557612710830492506004015b606483106120e7576064830492506002015b600a83106105e95760010192915050565b6040518060800160405280600081526020016000815260200160006001600160a01b031681526020016000151581525090565b6001600160e01b0319811681146112f157600080fd5b60006020828403121561215357600080fd5b81356119d88161212b565b60005b83811015612179578181015183820152602001612161565b50506000910152565b6000815180845261219a81602086016020860161215e565b601f01601f19169290920160200192915050565b6020815260006119d86020830184612182565b6000602082840312156121d357600080fd5b5035919050565b80356001600160a01b03811681146121f157600080fd5b919050565b6000806040838503121561220957600080fd5b612212836121da565b946020939093013593505050565b6000806040838503121561223357600080fd5b50508035926020909101359150565b60008060006060848603121561225757600080fd5b612260846121da565b925061226e602085016121da565b9150604084013590509250925092565b6020808252825182820181905260009190848201906040850190845b818110156122e9576122d683855180518252602080820151908301526040808201516001600160a01b0316908301526060908101511515910152565b928401926080929092019160010161229a565b50909695505050505050565b634e487b7160e01b600052604160045260246000fd5b600067ffffffffffffffff80841115612326576123266122f5565b604051601f8501601f19908116603f0116810190828211818310171561234e5761234e6122f5565b8160405280935085815286868601111561236757600080fd5b858560208301376000602087830101525050509392505050565b600082601f83011261239257600080fd5b6119d88383356020850161230b565b6000602082840312156123b357600080fd5b813567ffffffffffffffff8111156123ca57600080fd5b61126384828501612381565b81518152602080830151908201526040808301516001600160a01b031690820152606080830151151590820152608081016105e9565b60006020828403121561241e57600080fd5b6119d8826121da565b602080825282518282018190526000919060409081850190868401855b8281101561249457815180516001600160a01b0390811686528782015116878601528581015186860152606080820151908601526080908101519085015260a09093019290850190600101612444565b5091979650505050505050565b600080604083850312156124b457600080fd5b6124bd836121da565b9150602083013580151581146124d257600080fd5b809150509250929050565b600080600080608085870312156124f357600080fd5b6124fc856121da565b935061250a602086016121da565b925060408501359150606085013567ffffffffffffffff81111561252d57600080fd5b8501601f8101871361253e57600080fd5b61254d8782356020840161230b565b91505092959194509250565b6000806040838503121561256c57600080fd5b823567ffffffffffffffff81111561258357600080fd5b61258f85828601612381565b95602094909401359450505050565b600080604083850312156125b157600080fd5b6125ba836121da565b91506125c8602084016121da565b90509250929050565b600181811c908216806125e557607f821691505b60208210810361260557634e487b7160e01b600052602260045260246000fd5b50919050565b60208082526024908201527f5072696365206d75737420626520657175616c20746f206c697374696e6720706040820152637269636560e01b606082015260800190565b6020808252602d908201527f4552433732313a2063616c6c6572206973206e6f7420746f6b656e206f776e6560408201526c1c881bdc88185c1c1c9bdd9959609a1b606082015260800190565b634e487b7160e01b600052603260045260246000fd5b634e487b7160e01b600052601160045260246000fd5b808201808211156105e9576105e96126b2565b6000600182016126ed576126ed6126b2565b5060010190565b6000825161270681846020870161215e565b9190910192915050565b6000835161272281846020880161215e565b83519083019061273681836020880161215e565b01949350505050565b60208082526025908201527f4552433732313a207472616e736665722066726f6d20696e636f72726563742060408201526437bbb732b960d91b606082015260800190565b60208082526032908201527f4552433732313a207472616e7366657220746f206e6f6e20455243373231526560408201527131b2b4bb32b91034b6b83632b6b2b73a32b960711b606082015260800190565b601f8211156107bd57600081815260208120601f850160051c810160208610156127fd5750805b601f850160051c820191505b8181101561281c57828155600101612809565b505050505050565b815167ffffffffffffffff81111561283e5761283e6122f5565b6128528161284c84546125d1565b846127d6565b602080601f831160018114612887576000841561286f5750858301515b600019600386901b1c1916600185901b17855561281c565b600085815260208120601f198616915b828110156128b657888601518255948401946001909101908401612897565b50858210156128d45787850151600019600388901b60f8161c191681555b5050505050600190811b01905550565b6001600160a01b038581168252841660208201526040810183905260806060820181905260009061291790830184612182565b9695505050505050565b60006020828403121561293357600080fd5b81516119d88161212b565b818103818111156105e9576105e96126b2565b634e487b7160e01b600052603160045260246000fdfea26469706673582212201f6c4a2a1d5033e6cfe76b46ed268c922f1190d02e37e5ebc59192fcff60338964736f6c63430008110033",
    "sourcePath": "d:/SE final/nftpool-react/contracts/NftMarketplace.sol",
    "compiler": {
        "name": "solc",
        "version": "0.8.17+commit.8df45f5f"
    },
    "functionHashes": {
        "approve(address,uint256)": "095ea7b3",
        "balanceOf(address)": "70a08231",
        "buyNft(uint256)": "243adbdd",
        "getAllNftsOnSale()": "36b536be",
        "getApproved(uint256)": "081812fc",
        "getNftItem(uint256)": "6f1a0af5",
        "getOwnedNfts()": "70cbcb43",
        "getTransactions()": "83920e90",
        "isApprovedForAll(address,address)": "e985e9c5",
        "listedItemsCount()": "ccb4918d",
        "listingPrice()": "c78f19f9",
        "mintToken(string,uint256)": "c046372c",
        "name()": "06fdde03",
        "owner()": "8da5cb5b",
        "ownerOf(uint256)": "6352211e",
        "placeNftOnSale(uint256,uint256)": "21f422e5",
        "renounceOwnership()": "715018a6",
        "safeTransferFrom(address,address,uint256)": "42842e0e",
        "safeTransferFrom(address,address,uint256,bytes)": "b88d4fde",
        "setApprovalForAll(address,bool)": "a22cb465",
        "setListingPrice(uint256)": "7c726b69",
        "supportsInterface(bytes4)": "01ffc9a7",
        "symbol()": "95d89b41",
        "tokenByIndex(uint256)": "4f6ccce7",
        "tokenOfOwnerByIndex(address,uint256)": "2f745c59",
        "tokenURI(uint256)": "c87b56dd",
        "tokenURIExists(string)": "43d32ae7",
        "totalSupply()": "18160ddd",
        "transferFrom(address,address,uint256)": "23b872dd",
        "transferOwnership(address)": "f2fde38b"
    },
    "gasEstimates": {
        "creation": {
            "codeDepositCost": "2130600",
            "executionCost": "infinite",
            "totalCost": "infinite"
        },
        "external": {
            "approve(address,uint256)": "infinite",
            "balanceOf(address)": "2635",
            "buyNft(uint256)": "infinite",
            "getAllNftsOnSale()": "infinite",
            "getApproved(uint256)": "4815",
            "getNftItem(uint256)": "7242",
            "getOwnedNfts()": "infinite",
            "getTransactions()": "infinite",
            "isApprovedForAll(address,address)": "infinite",
            "listedItemsCount()": "2396",
            "listingPrice()": "2406",
            "mintToken(string,uint256)": "infinite",
            "name()": "infinite",
            "owner()": "2420",
            "ownerOf(uint256)": "2627",
            "placeNftOnSale(uint256,uint256)": "77579",
            "renounceOwnership()": "infinite",
            "safeTransferFrom(address,address,uint256)": "infinite",
            "safeTransferFrom(address,address,uint256,bytes)": "infinite",
            "setApprovalForAll(address,bool)": "26728",
            "setListingPrice(uint256)": "24556",
            "supportsInterface(bytes4)": "557",
            "symbol()": "infinite",
            "tokenByIndex(uint256)": "6782",
            "tokenOfOwnerByIndex(address,uint256)": "4998",
            "tokenURI(uint256)": "infinite",
            "tokenURIExists(string)": "infinite",
            "totalSupply()": "2349",
            "transferFrom(address,address,uint256)": "infinite",
            "transferOwnership(address)": "28446"
        },
        "internal": {
            "_addTokenToAllTokensEnumeration(uint256)": "infinite",
            "_addTokenToOwnerEnumeration(address,uint256)": "infinite",
            "_addTransaction(address,address,uint256,uint256)": "infinite",
            "_beforeTokenTransfer(address,address,uint256,uint256)": "infinite",
            "_createNftItem(uint256,uint256)": "infinite",
            "_removeTokenFromAllTokensEnumeration(uint256)": "89524",
            "_removeTokenFromOwnerEnumeration(address,uint256)": "infinite"
        }
    }
}