{
  "contractName": "NftMarketplace",
  "abi": [
    {
      "inputs": [],
      "stateMutability": "nonpayable",
      "type": "constructor"
    },
    {
      "anonymous": false,
      "inputs": [
        {
          "indexed": true,
          "internalType": "address",
          "name": "owner",
          "type": "address"
        },
        {
          "indexed": true,
          "internalType": "address",
          "name": "approved",
          "type": "address"
        },
        {
          "indexed": true,
          "internalType": "uint256",
          "name": "tokenId",
          "type": "uint256"
        }
      ],
      "name": "Approval",
      "type": "event"
    },
    {
      "anonymous": false,
      "inputs": [
        {
          "indexed": true,
          "internalType": "address",
          "name": "owner",
          "type": "address"
        },
        {
          "indexed": true,
          "internalType": "address",
          "name": "operator",
          "type": "address"
        },
        {
          "indexed": false,
          "internalType": "bool",
          "name": "approved",
          "type": "bool"
        }
      ],
      "name": "ApprovalForAll",
      "type": "event"
    },
    {
      "anonymous": false,
      "inputs": [
        {
          "indexed": false,
          "internalType": "uint256",
          "name": "tokenId",
          "type": "uint256"
        },
        {
          "indexed": false,
          "internalType": "uint256",
          "name": "price",
          "type": "uint256"
        },
        {
          "indexed": false,
          "internalType": "address",
          "name": "creator",
          "type": "address"
        },
        {
          "indexed": false,
          "internalType": "bool",
          "name": "isListed",
          "type": "bool"
        }
      ],
      "name": "NftItemCreated",
      "type": "event"
    },
    {
      "anonymous": false,
      "inputs": [
        {
          "indexed": true,
          "internalType": "address",
          "name": "previousOwner",
          "type": "address"
        },
        {
          "indexed": true,
          "internalType": "address",
          "name": "newOwner",
          "type": "address"
        }
      ],
      "name": "OwnershipTransferred",
      "type": "event"
    },
    {
      "anonymous": false,
      "inputs": [
        {
          "indexed": true,
          "internalType": "address",
          "name": "from",
          "type": "address"
        },
        {
          "indexed": true,
          "internalType": "address",
          "name": "to",
          "type": "address"
        },
        {
          "indexed": true,
          "internalType": "uint256",
          "name": "tokenId",
          "type": "uint256"
        }
      ],
      "name": "Transfer",
      "type": "event"
    },
    {
      "inputs": [
        {
          "internalType": "address",
          "name": "to",
          "type": "address"
        },
        {
          "internalType": "uint256",
          "name": "tokenId",
          "type": "uint256"
        }
      ],
      "name": "approve",
      "outputs": [],
      "stateMutability": "nonpayable",
      "type": "function"
    },
    {
      "inputs": [
        {
          "internalType": "address",
          "name": "owner",
          "type": "address"
        }
      ],
      "name": "balanceOf",
      "outputs": [
        {
          "internalType": "uint256",
          "name": "",
          "type": "uint256"
        }
      ],
      "stateMutability": "view",
      "type": "function",
      "constant": true
    },
    {
      "inputs": [
        {
          "internalType": "uint256",
          "name": "tokenId",
          "type": "uint256"
        }
      ],
      "name": "getApproved",
      "outputs": [
        {
          "internalType": "address",
          "name": "",
          "type": "address"
        }
      ],
      "stateMutability": "view",
      "type": "function",
      "constant": true
    },
    {
      "inputs": [
        {
          "internalType": "address",
          "name": "owner",
          "type": "address"
        },
        {
          "internalType": "address",
          "name": "operator",
          "type": "address"
        }
      ],
      "name": "isApprovedForAll",
      "outputs": [
        {
          "internalType": "bool",
          "name": "",
          "type": "bool"
        }
      ],
      "stateMutability": "view",
      "type": "function",
      "constant": true
    },
    {
      "inputs": [],
      "name": "listingPrice",
      "outputs": [
        {
          "internalType": "uint256",
          "name": "",
          "type": "uint256"
        }
      ],
      "stateMutability": "view",
      "type": "function",
      "constant": true
    },
    {
      "inputs": [],
      "name": "name",
      "outputs": [
        {
          "internalType": "string",
          "name": "",
          "type": "string"
        }
      ],
      "stateMutability": "view",
      "type": "function",
      "constant": true
    },
    {
      "inputs": [],
      "name": "owner",
      "outputs": [
        {
          "internalType": "address",
          "name": "",
          "type": "address"
        }
      ],
      "stateMutability": "view",
      "type": "function",
      "constant": true
    },
    {
      "inputs": [
        {
          "internalType": "uint256",
          "name": "tokenId",
          "type": "uint256"
        }
      ],
      "name": "ownerOf",
      "outputs": [
        {
          "internalType": "address",
          "name": "",
          "type": "address"
        }
      ],
      "stateMutability": "view",
      "type": "function",
      "constant": true
    },
    {
      "inputs": [],
      "name": "renounceOwnership",
      "outputs": [],
      "stateMutability": "nonpayable",
      "type": "function"
    },
    {
      "inputs": [
        {
          "internalType": "address",
          "name": "from",
          "type": "address"
        },
        {
          "internalType": "address",
          "name": "to",
          "type": "address"
        },
        {
          "internalType": "uint256",
          "name": "tokenId",
          "type": "uint256"
        }
      ],
      "name": "safeTransferFrom",
      "outputs": [],
      "stateMutability": "nonpayable",
      "type": "function"
    },
    {
      "inputs": [
        {
          "internalType": "address",
          "name": "from",
          "type": "address"
        },
        {
          "internalType": "address",
          "name": "to",
          "type": "address"
        },
        {
          "internalType": "uint256",
          "name": "tokenId",
          "type": "uint256"
        },
        {
          "internalType": "bytes",
          "name": "data",
          "type": "bytes"
        }
      ],
      "name": "safeTransferFrom",
      "outputs": [],
      "stateMutability": "nonpayable",
      "type": "function"
    },
    {
      "inputs": [
        {
          "internalType": "address",
          "name": "operator",
          "type": "address"
        },
        {
          "internalType": "bool",
          "name": "approved",
          "type": "bool"
        }
      ],
      "name": "setApprovalForAll",
      "outputs": [],
      "stateMutability": "nonpayable",
      "type": "function"
    },
    {
      "inputs": [
        {
          "internalType": "bytes4",
          "name": "interfaceId",
          "type": "bytes4"
        }
      ],
      "name": "supportsInterface",
      "outputs": [
        {
          "internalType": "bool",
          "name": "",
          "type": "bool"
        }
      ],
      "stateMutability": "view",
      "type": "function",
      "constant": true
    },
    {
      "inputs": [],
      "name": "symbol",
      "outputs": [
        {
          "internalType": "string",
          "name": "",
          "type": "string"
        }
      ],
      "stateMutability": "view",
      "type": "function",
      "constant": true
    },
    {
      "inputs": [
        {
          "internalType": "uint256",
          "name": "tokenId",
          "type": "uint256"
        }
      ],
      "name": "tokenURI",
      "outputs": [
        {
          "internalType": "string",
          "name": "",
          "type": "string"
        }
      ],
      "stateMutability": "view",
      "type": "function",
      "constant": true
    },
    {
      "inputs": [
        {
          "internalType": "address",
          "name": "from",
          "type": "address"
        },
        {
          "internalType": "address",
          "name": "to",
          "type": "address"
        },
        {
          "internalType": "uint256",
          "name": "tokenId",
          "type": "uint256"
        }
      ],
      "name": "transferFrom",
      "outputs": [],
      "stateMutability": "nonpayable",
      "type": "function"
    },
    {
      "inputs": [
        {
          "internalType": "address",
          "name": "newOwner",
          "type": "address"
        }
      ],
      "name": "transferOwnership",
      "outputs": [],
      "stateMutability": "nonpayable",
      "type": "function"
    },
    {
      "inputs": [
        {
          "internalType": "uint256",
          "name": "newPrice",
          "type": "uint256"
        }
      ],
      "name": "setListingPrice",
      "outputs": [],
      "stateMutability": "nonpayable",
      "type": "function"
    },
    {
      "inputs": [
        {
          "internalType": "uint256",
          "name": "tokenId",
          "type": "uint256"
        }
      ],
      "name": "getNftItem",
      "outputs": [
        {
          "components": [
            {
              "internalType": "uint256",
              "name": "tokenId",
              "type": "uint256"
            },
            {
              "internalType": "uint256",
              "name": "price",
              "type": "uint256"
            },
            {
              "internalType": "address",
              "name": "creator",
              "type": "address"
            },
            {
              "internalType": "bool",
              "name": "isListed",
              "type": "bool"
            }
          ],
          "internalType": "struct NftMarketplace.NftItem",
          "name": "",
          "type": "tuple"
        }
      ],
      "stateMutability": "view",
      "type": "function",
      "constant": true
    },
    {
      "inputs": [],
      "name": "listedItemsCount",
      "outputs": [
        {
          "internalType": "uint256",
          "name": "",
          "type": "uint256"
        }
      ],
      "stateMutability": "view",
      "type": "function",
      "constant": true
    },
    {
      "inputs": [
        {
          "internalType": "string",
          "name": "tokenURI",
          "type": "string"
        }
      ],
      "name": "tokenURIExists",
      "outputs": [
        {
          "internalType": "bool",
          "name": "",
          "type": "bool"
        }
      ],
      "stateMutability": "view",
      "type": "function",
      "constant": true
    },
    {
      "inputs": [],
      "name": "totalSupply",
      "outputs": [
        {
          "internalType": "uint256",
          "name": "",
          "type": "uint256"
        }
      ],
      "stateMutability": "view",
      "type": "function",
      "constant": true
    },
    {
      "inputs": [
        {
          "internalType": "uint256",
          "name": "index",
          "type": "uint256"
        }
      ],
      "name": "tokenByIndex",
      "outputs": [
        {
          "internalType": "uint256",
          "name": "",
          "type": "uint256"
        }
      ],
      "stateMutability": "view",
      "type": "function",
      "constant": true
    },
    {
      "inputs": [
        {
          "internalType": "address",
          "name": "owner",
          "type": "address"
        },
        {
          "internalType": "uint256",
          "name": "index",
          "type": "uint256"
        }
      ],
      "name": "tokenOfOwnerByIndex",
      "outputs": [
        {
          "internalType": "uint256",
          "name": "",
          "type": "uint256"
        }
      ],
      "stateMutability": "view",
      "type": "function",
      "constant": true
    },
    {
      "inputs": [],
      "name": "getAllNftsOnSale",
      "outputs": [
        {
          "components": [
            {
              "internalType": "uint256",
              "name": "tokenId",
              "type": "uint256"
            },
            {
              "internalType": "uint256",
              "name": "price",
              "type": "uint256"
            },
            {
              "internalType": "address",
              "name": "creator",
              "type": "address"
            },
            {
              "internalType": "bool",
              "name": "isListed",
              "type": "bool"
            }
          ],
          "internalType": "struct NftMarketplace.NftItem[]",
          "name": "",
          "type": "tuple[]"
        }
      ],
      "stateMutability": "view",
      "type": "function",
      "constant": true
    },
    {
      "inputs": [],
      "name": "getOwnedNfts",
      "outputs": [
        {
          "components": [
            {
              "internalType": "uint256",
              "name": "tokenId",
              "type": "uint256"
            },
            {
              "internalType": "uint256",
              "name": "price",
              "type": "uint256"
            },
            {
              "internalType": "address",
              "name": "creator",
              "type": "address"
            },
            {
              "internalType": "bool",
              "name": "isListed",
              "type": "bool"
            }
          ],
          "internalType": "struct NftMarketplace.NftItem[]",
          "name": "",
          "type": "tuple[]"
        }
      ],
      "stateMutability": "view",
      "type": "function",
      "constant": true
    },
    {
      "inputs": [
        {
          "internalType": "string",
          "name": "tokenURI",
          "type": "string"
        },
        {
          "internalType": "uint256",
          "name": "price",
          "type": "uint256"
        }
      ],
      "name": "mintToken",
      "outputs": [
        {
          "internalType": "uint256",
          "name": "",
          "type": "uint256"
        }
      ],
      "stateMutability": "payable",
      "type": "function",
      "payable": true
    },
    {
      "inputs": [
        {
          "internalType": "uint256",
          "name": "tokenId",
          "type": "uint256"
        }
      ],
      "name": "buyNft",
      "outputs": [],
      "stateMutability": "payable",
      "type": "function",
      "payable": true
    },
    {
      "inputs": [
        {
          "internalType": "uint256",
          "name": "tokenId",
          "type": "uint256"
        },
        {
          "internalType": "uint256",
          "name": "newPrice",
          "type": "uint256"
        }
      ],
      "name": "placeNftOnSale",
      "outputs": [],
      "stateMutability": "payable",
      "type": "function",
      "payable": true
    },
    {
      "inputs": [],
      "name": "getTransactions",
      "outputs": [
        {
          "internalType": "uint256",
          "name": "",
          "type": "uint256"
        }
      ],
      "stateMutability": "view",
      "type": "function",
      "constant": true
    }
  ],
  "bytecode": "0x60806040526658d15e176280006008553480156200001c57600080fd5b506040518060400160405280600681526020017f4172744e465400000000000000000000000000000000000000000000000000008152506040518060400160405280600481526020017f414e46540000000000000000000000000000000000000000000000000000000081525081600090816200009a91906200041d565b508060019081620000ac91906200041d565b505050620000cf620000c3620000d560201b60201c565b620000dd60201b60201c565b62000504565b600033905090565b6000600760009054906101000a900473ffffffffffffffffffffffffffffffffffffffff16905081600760006101000a81548173ffffffffffffffffffffffffffffffffffffffff021916908373ffffffffffffffffffffffffffffffffffffffff1602179055508173ffffffffffffffffffffffffffffffffffffffff168173ffffffffffffffffffffffffffffffffffffffff167f8be0079c531659141344cd1fd0a4f28419497f9722a3daafe3b4186f6b6457e060405160405180910390a35050565b600081519050919050565b7f4e487b7100000000000000000000000000000000000000000000000000000000600052604160045260246000fd5b7f4e487b7100000000000000000000000000000000000000000000000000000000600052602260045260246000fd5b600060028204905060018216806200022557607f821691505b6020821081036200023b576200023a620001dd565b5b50919050565b60008190508160005260206000209050919050565b60006020601f8301049050919050565b600082821b905092915050565b600060088302620002a57fffffffffffffffffffffffffffffffffffffffffffffffffffffffffffffffff8262000266565b620002b1868362000266565b95508019841693508086168417925050509392505050565b6000819050919050565b6000819050919050565b6000620002fe620002f8620002f284620002c9565b620002d3565b620002c9565b9050919050565b6000819050919050565b6200031a83620002dd565b62000332620003298262000305565b84845462000273565b825550505050565b600090565b620003496200033a565b620003568184846200030f565b505050565b5b818110156200037e57620003726000826200033f565b6001810190506200035c565b5050565b601f821115620003cd57620003978162000241565b620003a28462000256565b81016020851015620003b2578190505b620003ca620003c18562000256565b8301826200035b565b50505b505050565b600082821c905092915050565b6000620003f260001984600802620003d2565b1980831691505092915050565b60006200040d8383620003df565b9150826002028217905092915050565b6200042882620001a3565b67ffffffffffffffff811115620004445762000443620001ae565b5b6200045082546200020c565b6200045d82828562000382565b600060209050601f83116001811462000495576000841562000480578287015190505b6200048c8582620003ff565b865550620004fc565b601f198416620004a58662000241565b60005b82811015620004cf57848901518255600182019150602085019450602081019050620004a8565b86831015620004ef5784890151620004eb601f891682620003df565b8355505b6001600288020188555050505b505050505050565b614a1480620005146000396000f3fe6080604052600436106101cd5760003560e01c806370a08231116100f7578063a22cb46511610095578063c87b56dd11610064578063c87b56dd14610687578063ccb4918d146106c4578063e985e9c5146106ef578063f2fde38b1461072c576101cd565b8063a22cb465146105da578063b88d4fde14610603578063c046372c1461062c578063c78f19f91461065c576101cd565b80637c726b69116100d15780637c726b691461053057806383920e90146105595780638da5cb5b1461058457806395d89b41146105af576101cd565b806370a08231146104b157806370cbcb43146104ee578063715018a614610519576101cd565b8063243adbdd1161016f57806343d32ae71161013e57806343d32ae7146103bd5780634f6ccce7146103fa5780636352211e146104375780636f1a0af514610474576101cd565b8063243adbdd146103105780632f745c591461032c57806336b536be1461036957806342842e0e14610394576101cd565b8063095ea7b3116101ab578063095ea7b31461027757806318160ddd146102a057806321f422e5146102cb57806323b872dd146102e7576101cd565b806301ffc9a7146101d257806306fdde031461020f578063081812fc1461023a575b600080fd5b3480156101de57600080fd5b506101f960048036038101906101f4919061302e565b610755565b6040516102069190613076565b60405180910390f35b34801561021b57600080fd5b50610224610837565b6040516102319190613121565b60405180910390f35b34801561024657600080fd5b50610261600480360381019061025c9190613179565b6108c9565b60405161026e91906131e7565b60405180910390f35b34801561028357600080fd5b5061029e6004803603810190610299919061322e565b61090f565b005b3480156102ac57600080fd5b506102b5610a26565b6040516102c2919061327d565b60405180910390f35b6102e560048036038101906102e09190613298565b610a33565b005b3480156102f357600080fd5b5061030e600480360381019061030991906132d8565b610bb0565b005b61032a60048036038101906103259190613179565b610c10565b005b34801561033857600080fd5b50610353600480360381019061034e919061322e565b610d78565b604051610360919061327d565b60405180910390f35b34801561037557600080fd5b5061037e610e1d565b60405161038b919061345c565b60405180910390f35b3480156103a057600080fd5b506103bb60048036038101906103b691906132d8565b610fb7565b005b3480156103c957600080fd5b506103e460048036038101906103df91906135b3565b610fd7565b6040516103f19190613076565b60405180910390f35b34801561040657600080fd5b50610421600480360381019061041c9190613179565b611013565b60405161042e919061327d565b60405180910390f35b34801561044357600080fd5b5061045e60048036038101906104599190613179565b611084565b60405161046b91906131e7565b60405180910390f35b34801561048057600080fd5b5061049b60048036038101906104969190613179565b61110a565b6040516104a89190613651565b60405180910390f35b3480156104bd57600080fd5b506104d860048036038101906104d3919061366c565b6111bc565b6040516104e5919061327d565b60405180910390f35b3480156104fa57600080fd5b50610503611273565b604051610510919061345c565b60405180910390f35b34801561052557600080fd5b5061052e6113d7565b005b34801561053c57600080fd5b5061055760048036038101906105529190613179565b6113eb565b005b34801561056557600080fd5b5061056e611440565b60405161057b919061327d565b60405180910390f35b34801561059057600080fd5b50610599611451565b6040516105a691906131e7565b60405180910390f35b3480156105bb57600080fd5b506105c461147b565b6040516105d19190613121565b60405180910390f35b3480156105e657600080fd5b5061060160048036038101906105fc91906136c5565b61150d565b005b34801561060f57600080fd5b5061062a600480360381019061062591906137a6565b611523565b005b61064660048036038101906106419190613829565b611585565b604051610653919061327d565b60405180910390f35b34801561066857600080fd5b50610671611651565b60405161067e919061327d565b60405180910390f35b34801561069357600080fd5b506106ae60048036038101906106a99190613179565b611657565b6040516106bb9190613121565b60405180910390f35b3480156106d057600080fd5b506106d9611769565b6040516106e6919061327d565b60405180910390f35b3480156106fb57600080fd5b5061071660048036038101906107119190613885565b61177a565b6040516107239190613076565b60405180910390f35b34801561073857600080fd5b50610753600480360381019061074e919061366c565b61180e565b005b60007f80ac58cd000000000000000000000000000000000000000000000000000000007bffffffffffffffffffffffffffffffffffffffffffffffffffffffff1916827bffffffffffffffffffffffffffffffffffffffffffffffffffffffff1916148061082057507f5b5e139f000000000000000000000000000000000000000000000000000000007bffffffffffffffffffffffffffffffffffffffffffffffffffffffff1916827bffffffffffffffffffffffffffffffffffffffffffffffffffffffff1916145b80610830575061082f82611891565b5b9050919050565b606060008054610846906138f4565b80601f0160208091040260200160405190810160405280929190818152602001828054610872906138f4565b80156108bf5780601f10610894576101008083540402835291602001916108bf565b820191906000526020600020905b8154815290600101906020018083116108a257829003601f168201915b5050505050905090565b60006108d4826118fb565b6004600083815260200190815260200160002060009054906101000a900473ffffffffffffffffffffffffffffffffffffffff169050919050565b600061091a82611084565b90508073ffffffffffffffffffffffffffffffffffffffff168373ffffffffffffffffffffffffffffffffffffffff160361098a576040517f08c379a000000000000000000000000000000000000000000000000000000000815260040161098190613997565b60405180910390fd5b8073ffffffffffffffffffffffffffffffffffffffff166109a9611946565b73ffffffffffffffffffffffffffffffffffffffff1614806109d857506109d7816109d2611946565b61177a565b5b610a17576040517f08c379a0000000000000000000000000000000000000000000000000000000008152600401610a0e90613a29565b60405180910390fd5b610a21838361194e565b505050565b6000600f80549050905090565b3373ffffffffffffffffffffffffffffffffffffffff16610a5383611084565b73ffffffffffffffffffffffffffffffffffffffff1614610aa9576040517f08c379a0000000000000000000000000000000000000000000000000000000008152600401610aa090613a95565b60405180910390fd5b60001515600c600084815260200190815260200160002060020160149054906101000a900460ff16151514610b13576040517f08c379a0000000000000000000000000000000000000000000000000000000008152600401610b0a90613b01565b60405180910390fd5b600854341015610b58576040517f08c379a0000000000000000000000000000000000000000000000000000000008152600401610b4f90613b93565b60405180910390fd5b6001600c600084815260200190815260200160002060020160146101000a81548160ff02191690831515021790555080600c600084815260200190815260200160002060010181905550610bac6009611a07565b5050565b610bc1610bbb611946565b82611a1d565b610c00576040517f08c379a0000000000000000000000000000000000000000000000000000000008152600401610bf790613c25565b60405180910390fd5b610c0b838383611ab2565b505050565b6000600c60008381526020019081526020016000206001015490506000610c3683611084565b90508073ffffffffffffffffffffffffffffffffffffffff163373ffffffffffffffffffffffffffffffffffffffff1603610ca6576040517f08c379a0000000000000000000000000000000000000000000000000000000008152600401610c9d90613c91565b60405180910390fd5b813414610ce8576040517f08c379a0000000000000000000000000000000000000000000000000000000008152600401610cdf90613cfd565b60405180910390fd5b6000600c600085815260200190815260200160002060020160146101000a81548160ff021916908315150217905550610d216009611dab565b610d2c813385611ab2565b8073ffffffffffffffffffffffffffffffffffffffff166108fc349081150290604051600060405180830381858888f19350505050158015610d72573d6000803e3d6000fd5b50505050565b6000610d83836111bc565b8210610dc4576040517f08c379a0000000000000000000000000000000000000000000000000000000008152600401610dbb90613d69565b60405180910390fd5b600d60008473ffffffffffffffffffffffffffffffffffffffff1673ffffffffffffffffffffffffffffffffffffffff168152602001908152602001600020600083815260200190815260200160002054905092915050565b60606000610e29610a26565b9050600080610e386009611e07565b67ffffffffffffffff811115610e5157610e50613488565b5b604051908082528060200260200182016040528015610e8a57816020015b610e77612f82565b815260200190600190039081610e6f5790505b50905060005b83811015610fad576000610ea382611013565b90506000600c60008381526020019081526020016000209050600115158160020160149054906101000a900460ff16151503610f98578060405180608001604052908160008201548152602001600182015481526020016002820160009054906101000a900473ffffffffffffffffffffffffffffffffffffffff1673ffffffffffffffffffffffffffffffffffffffff1673ffffffffffffffffffffffffffffffffffffffff1681526020016002820160149054906101000a900460ff161515151581525050848681518110610f7d57610f7c613d89565b5b6020026020010181905250600185610f959190613de7565b94505b50508080610fa590613e1b565b915050610e90565b5080935050505090565b610fd283838360405180602001604052806000815250611523565b505050565b600060011515600b83604051610fed9190613e9f565b908152602001604051809103902060009054906101000a900460ff161515149050919050565b600061101d610a26565b821061105e576040517f08c379a000000000000000000000000000000000000000000000000000000000815260040161105590613d69565b60405180910390fd5b600f828154811061107257611071613d89565b5b90600052602060002001549050919050565b60008061109083611e15565b9050600073ffffffffffffffffffffffffffffffffffffffff168173ffffffffffffffffffffffffffffffffffffffff1603611101576040517f08c379a00000000000000000000000000000000000000000000000000000000081526004016110f890613f02565b60405180910390fd5b80915050919050565b611112612f82565b600c600083815260200190815260200160002060405180608001604052908160008201548152602001600182015481526020016002820160009054906101000a900473ffffffffffffffffffffffffffffffffffffffff1673ffffffffffffffffffffffffffffffffffffffff1673ffffffffffffffffffffffffffffffffffffffff1681526020016002820160149054906101000a900460ff1615151515815250509050919050565b60008073ffffffffffffffffffffffffffffffffffffffff168273ffffffffffffffffffffffffffffffffffffffff160361122c576040517f08c379a000000000000000000000000000000000000000000000000000000000815260040161122390613f94565b60405180910390fd5b600360008373ffffffffffffffffffffffffffffffffffffffff1673ffffffffffffffffffffffffffffffffffffffff168152602001908152602001600020549050919050565b60606000611280336111bc565b905060008167ffffffffffffffff81111561129e5761129d613488565b5b6040519080825280602002602001820160405280156112d757816020015b6112c4612f82565b8152602001906001900390816112bc5790505b50905060005b828110156113ce5760006112f13383610d78565b90506000600c600083815260200190815260200160002090508060405180608001604052908160008201548152602001600182015481526020016002820160009054906101000a900473ffffffffffffffffffffffffffffffffffffffff1673ffffffffffffffffffffffffffffffffffffffff1673ffffffffffffffffffffffffffffffffffffffff1681526020016002820160149054906101000a900460ff1615151515815250508484815181106113ae576113ad613d89565b5b6020026020010181905250505080806113c690613e1b565b9150506112dd565b50809250505090565b6113df611e52565b6113e96000611ed0565b565b6113f3611e52565b60008111611436576040517f08c379a000000000000000000000000000000000000000000000000000000000815260040161142d90614000565b60405180910390fd5b8060088190555050565b600061144c6009611e07565b905090565b6000600760009054906101000a900473ffffffffffffffffffffffffffffffffffffffff16905090565b60606001805461148a906138f4565b80601f01602080910402602001604051908101604052809291908181526020018280546114b6906138f4565b80156115035780601f106114d857610100808354040283529160200191611503565b820191906000526020600020905b8154815290600101906020018083116114e657829003601f168201915b5050505050905090565b61151f611518611946565b8383611f96565b5050565b61153461152e611946565b83611a1d565b611573576040517f08c379a000000000000000000000000000000000000000000000000000000000815260040161156a90613c25565b60405180910390fd5b61157f84848484612102565b50505050565b600061159083610fd7565b156115d0576040517f08c379a00000000000000000000000000000000000000000000000000000000081526004016115c79061406c565b60405180910390fd5b6115da600a611a07565b6115e46009611a07565b60006115f0600a611e07565b90506115fc338261215e565b611606818561217c565b61161081846121e9565b6001600b856040516116229190613e9f565b908152602001604051809103902060006101000a81548160ff0219169083151502179055508091505092915050565b60085481565b6060611662826118fb565b6000600660008481526020019081526020016000208054611682906138f4565b80601f01602080910402602001604051908101604052809291908181526020018280546116ae906138f4565b80156116fb5780601f106116d0576101008083540402835291602001916116fb565b820191906000526020600020905b8154815290600101906020018083116116de57829003601f168201915b50505050509050600061170c612339565b90506000815103611721578192505050611764565b60008251111561175657808260405160200161173e92919061408c565b60405160208183030381529060405292505050611764565b61175f84612350565b925050505b919050565b60006117756009611e07565b905090565b6000600560008473ffffffffffffffffffffffffffffffffffffffff1673ffffffffffffffffffffffffffffffffffffffff16815260200190815260200160002060008373ffffffffffffffffffffffffffffffffffffffff1673ffffffffffffffffffffffffffffffffffffffff16815260200190815260200160002060009054906101000a900460ff16905092915050565b611816611e52565b600073ffffffffffffffffffffffffffffffffffffffff168173ffffffffffffffffffffffffffffffffffffffff1603611885576040517f08c379a000000000000000000000000000000000000000000000000000000000815260040161187c90614122565b60405180910390fd5b61188e81611ed0565b50565b60007f01ffc9a7000000000000000000000000000000000000000000000000000000007bffffffffffffffffffffffffffffffffffffffffffffffffffffffff1916827bffffffffffffffffffffffffffffffffffffffffffffffffffffffff1916149050919050565b611904816123b8565b611943576040517f08c379a000000000000000000000000000000000000000000000000000000000815260040161193a90613f02565b60405180910390fd5b50565b600033905090565b816004600083815260200190815260200160002060006101000a81548173ffffffffffffffffffffffffffffffffffffffff021916908373ffffffffffffffffffffffffffffffffffffffff160217905550808273ffffffffffffffffffffffffffffffffffffffff166119c183611084565b73ffffffffffffffffffffffffffffffffffffffff167f8c5be1e5ebec7d5bd14f71427d1e84f3dd0314c0f7b2291e5b200ac8c7c3b92560405160405180910390a45050565b6001816000016000828254019250508190555050565b600080611a2983611084565b90508073ffffffffffffffffffffffffffffffffffffffff168473ffffffffffffffffffffffffffffffffffffffff161480611a6b5750611a6a818561177a565b5b80611aa957508373ffffffffffffffffffffffffffffffffffffffff16611a91846108c9565b73ffffffffffffffffffffffffffffffffffffffff16145b91505092915050565b8273ffffffffffffffffffffffffffffffffffffffff16611ad282611084565b73ffffffffffffffffffffffffffffffffffffffff1614611b28576040517f08c379a0000000000000000000000000000000000000000000000000000000008152600401611b1f906141b4565b60405180910390fd5b600073ffffffffffffffffffffffffffffffffffffffff168273ffffffffffffffffffffffffffffffffffffffff1603611b97576040517f08c379a0000000000000000000000000000000000000000000000000000000008152600401611b8e90614246565b60405180910390fd5b611ba483838360016123f9565b8273ffffffffffffffffffffffffffffffffffffffff16611bc482611084565b73ffffffffffffffffffffffffffffffffffffffff1614611c1a576040517f08c379a0000000000000000000000000000000000000000000000000000000008152600401611c11906141b4565b60405180910390fd5b6004600082815260200190815260200160002060006101000a81549073ffffffffffffffffffffffffffffffffffffffff02191690556001600360008573ffffffffffffffffffffffffffffffffffffffff1673ffffffffffffffffffffffffffffffffffffffff168152602001908152602001600020600082825403925050819055506001600360008473ffffffffffffffffffffffffffffffffffffffff1673ffffffffffffffffffffffffffffffffffffffff16815260200190815260200160002060008282540192505081905550816002600083815260200190815260200160002060006101000a81548173ffffffffffffffffffffffffffffffffffffffff021916908373ffffffffffffffffffffffffffffffffffffffff160217905550808273ffffffffffffffffffffffffffffffffffffffff168473ffffffffffffffffffffffffffffffffffffffff167fddf252ad1be2c89b69c2b068fc378daa952ba7f163c4a11628f55a4df523b3ef60405160405180910390a4611da6838383600161250d565b505050565b60008160000154905060008111611df7576040517f08c379a0000000000000000000000000000000000000000000000000000000008152600401611dee906142b2565b60405180910390fd5b6001810382600001819055505050565b600081600001549050919050565b60006002600083815260200190815260200160002060009054906101000a900473ffffffffffffffffffffffffffffffffffffffff169050919050565b611e5a611946565b73ffffffffffffffffffffffffffffffffffffffff16611e78611451565b73ffffffffffffffffffffffffffffffffffffffff1614611ece576040517f08c379a0000000000000000000000000000000000000000000000000000000008152600401611ec59061431e565b60405180910390fd5b565b6000600760009054906101000a900473ffffffffffffffffffffffffffffffffffffffff16905081600760006101000a81548173ffffffffffffffffffffffffffffffffffffffff021916908373ffffffffffffffffffffffffffffffffffffffff1602179055508173ffffffffffffffffffffffffffffffffffffffff168173ffffffffffffffffffffffffffffffffffffffff167f8be0079c531659141344cd1fd0a4f28419497f9722a3daafe3b4186f6b6457e060405160405180910390a35050565b8173ffffffffffffffffffffffffffffffffffffffff168373ffffffffffffffffffffffffffffffffffffffff1603612004576040517f08c379a0000000000000000000000000000000000000000000000000000000008152600401611ffb9061438a565b60405180910390fd5b80600560008573ffffffffffffffffffffffffffffffffffffffff1673ffffffffffffffffffffffffffffffffffffffff16815260200190815260200160002060008473ffffffffffffffffffffffffffffffffffffffff1673ffffffffffffffffffffffffffffffffffffffff16815260200190815260200160002060006101000a81548160ff0219169083151502179055508173ffffffffffffffffffffffffffffffffffffffff168373ffffffffffffffffffffffffffffffffffffffff167f17307eab39ab6107e8899845ad3d59bd9653f200f220920489ca2b5937696c31836040516120f59190613076565b60405180910390a3505050565b61210d848484611ab2565b61211984848484612513565b612158576040517f08c379a000000000000000000000000000000000000000000000000000000000815260040161214f9061441c565b60405180910390fd5b50505050565b61217882826040518060200160405280600081525061269a565b5050565b612185826123b8565b6121c4576040517f08c379a00000000000000000000000000000000000000000000000000000000081526004016121bb906144ae565b60405180910390fd5b806006600084815260200190815260200160002090816121e4919061467a565b505050565b6000811161222c576040517f08c379a000000000000000000000000000000000000000000000000000000000815260040161222390614000565b60405180910390fd5b60405180608001604052808381526020018281526020013373ffffffffffffffffffffffffffffffffffffffff16815260200160011515815250600c6000848152602001908152602001600020600082015181600001556020820151816001015560408201518160020160006101000a81548173ffffffffffffffffffffffffffffffffffffffff021916908373ffffffffffffffffffffffffffffffffffffffff16021790555060608201518160020160146101000a81548160ff0219169083151502179055509050507f470031062672bc0246e132c723a729c4676710ec663a29e86c88678032daddea828233600160405161232d949392919061474c565b60405180910390a15050565b606060405180602001604052806000815250905090565b606061235b826118fb565b6000612365612339565b9050600081511161238557604051806020016040528060008152506123b0565b8061238f846126f5565b6040516020016123a092919061408c565b6040516020818303038152906040525b915050919050565b60008073ffffffffffffffffffffffffffffffffffffffff166123da83611e15565b73ffffffffffffffffffffffffffffffffffffffff1614159050919050565b612405848484846127c3565b600073ffffffffffffffffffffffffffffffffffffffff168473ffffffffffffffffffffffffffffffffffffffff160361244757612442826128e9565b612486565b8273ffffffffffffffffffffffffffffffffffffffff168473ffffffffffffffffffffffffffffffffffffffff1614612485576124848483612932565b5b5b600073ffffffffffffffffffffffffffffffffffffffff168373ffffffffffffffffffffffffffffffffffffffff16036124c8576124c382612a9f565b612507565b8373ffffffffffffffffffffffffffffffffffffffff168373ffffffffffffffffffffffffffffffffffffffff1614612506576125058383612b70565b5b5b50505050565b50505050565b60006125348473ffffffffffffffffffffffffffffffffffffffff16612bef565b1561268d578373ffffffffffffffffffffffffffffffffffffffff1663150b7a0261255d611946565b8786866040518563ffffffff1660e01b815260040161257f94939291906147e6565b6020604051808303816000875af19250505080156125bb57506040513d601f19601f820116820180604052508101906125b89190614847565b60015b61263d573d80600081146125eb576040519150601f19603f3d011682016040523d82523d6000602084013e6125f0565b606091505b506000815103612635576040517f08c379a000000000000000000000000000000000000000000000000000000000815260040161262c9061441c565b60405180910390fd5b805181602001fd5b63150b7a0260e01b7bffffffffffffffffffffffffffffffffffffffffffffffffffffffff1916817bffffffffffffffffffffffffffffffffffffffffffffffffffffffff191614915050612692565b600190505b949350505050565b6126a48383612c12565b6126b16000848484612513565b6126f0576040517f08c379a00000000000000000000000000000000000000000000000000000000081526004016126e79061441c565b60405180910390fd5b505050565b60606000600161270484612e2f565b01905060008167ffffffffffffffff81111561272357612722613488565b5b6040519080825280601f01601f1916602001820160405280156127555781602001600182028036833780820191505090505b509050600082602001820190505b6001156127b8578080600190039150507f3031323334353637383961626364656600000000000000000000000000000000600a86061a8153600a85816127ac576127ab614874565b5b04945060008503612763575b819350505050919050565b60018111156128e357600073ffffffffffffffffffffffffffffffffffffffff168473ffffffffffffffffffffffffffffffffffffffff16146128575780600360008673ffffffffffffffffffffffffffffffffffffffff1673ffffffffffffffffffffffffffffffffffffffff168152602001908152602001600020600082825461284f91906148a3565b925050819055505b600073ffffffffffffffffffffffffffffffffffffffff168373ffffffffffffffffffffffffffffffffffffffff16146128e25780600360008573ffffffffffffffffffffffffffffffffffffffff1673ffffffffffffffffffffffffffffffffffffffff16815260200190815260200160002060008282546128da9190613de7565b925050819055505b5b50505050565b600f805490506011600083815260200190815260200160002081905550600f81908060018154018082558091505060019003906000526020600020016000909190919091505550565b6000600161293f846111bc565b61294991906148a3565b90506000600e6000848152602001908152602001600020549050818114612a2e576000600d60008673ffffffffffffffffffffffffffffffffffffffff1673ffffffffffffffffffffffffffffffffffffffff168152602001908152602001600020600084815260200190815260200160002054905080600d60008773ffffffffffffffffffffffffffffffffffffffff1673ffffffffffffffffffffffffffffffffffffffff16815260200190815260200160002060008481526020019081526020016000208190555081600e600083815260200190815260200160002081905550505b600e600084815260200190815260200160002060009055600d60008573ffffffffffffffffffffffffffffffffffffffff1673ffffffffffffffffffffffffffffffffffffffff16815260200190815260200160002060008381526020019081526020016000206000905550505050565b60006001600f80549050612ab391906148a3565b90506000601160008481526020019081526020016000205490506000600f8381548110612ae357612ae2613d89565b5b9060005260206000200154905080600f8381548110612b0557612b04613d89565b5b90600052602060002001819055508160116000838152602001908152602001600020819055506011600085815260200190815260200160002060009055600f805480612b5457612b536148d7565b5b6001900381819060005260206000200160009055905550505050565b6000612b7b836111bc565b905081600d60008573ffffffffffffffffffffffffffffffffffffffff1673ffffffffffffffffffffffffffffffffffffffff16815260200190815260200160002060008381526020019081526020016000208190555080600e600084815260200190815260200160002081905550505050565b6000808273ffffffffffffffffffffffffffffffffffffffff163b119050919050565b600073ffffffffffffffffffffffffffffffffffffffff168273ffffffffffffffffffffffffffffffffffffffff1603612c81576040517f08c379a0000000000000000000000000000000000000000000000000000000008152600401612c7890614952565b60405180910390fd5b612c8a816123b8565b15612cca576040517f08c379a0000000000000000000000000000000000000000000000000000000008152600401612cc1906149be565b60405180910390fd5b612cd86000838360016123f9565b612ce1816123b8565b15612d21576040517f08c379a0000000000000000000000000000000000000000000000000000000008152600401612d18906149be565b60405180910390fd5b6001600360008473ffffffffffffffffffffffffffffffffffffffff1673ffffffffffffffffffffffffffffffffffffffff16815260200190815260200160002060008282540192505081905550816002600083815260200190815260200160002060006101000a81548173ffffffffffffffffffffffffffffffffffffffff021916908373ffffffffffffffffffffffffffffffffffffffff160217905550808273ffffffffffffffffffffffffffffffffffffffff16600073ffffffffffffffffffffffffffffffffffffffff167fddf252ad1be2c89b69c2b068fc378daa952ba7f163c4a11628f55a4df523b3ef60405160405180910390a4612e2b60008383600161250d565b5050565b600080600090507a184f03e93ff9f4daa797ed6e38ed64bf6a1f0100000000000000008310612e8d577a184f03e93ff9f4daa797ed6e38ed64bf6a1f0100000000000000008381612e8357612e82614874565b5b0492506040810190505b6d04ee2d6d415b85acef81000000008310612eca576d04ee2d6d415b85acef81000000008381612ec057612ebf614874565b5b0492506020810190505b662386f26fc100008310612ef957662386f26fc100008381612eef57612eee614874565b5b0492506010810190505b6305f5e1008310612f22576305f5e1008381612f1857612f17614874565b5b0492506008810190505b6127108310612f47576127108381612f3d57612f3c614874565b5b0492506004810190505b60648310612f6a5760648381612f6057612f5f614874565b5b0492506002810190505b600a8310612f79576001810190505b80915050919050565b60405180608001604052806000815260200160008152602001600073ffffffffffffffffffffffffffffffffffffffff1681526020016000151581525090565b6000604051905090565b600080fd5b600080fd5b60007fffffffff0000000000000000000000000000000000000000000000000000000082169050919050565b61300b81612fd6565b811461301657600080fd5b50565b60008135905061302881613002565b92915050565b60006020828403121561304457613043612fcc565b5b600061305284828501613019565b91505092915050565b60008115159050919050565b6130708161305b565b82525050565b600060208201905061308b6000830184613067565b92915050565b600081519050919050565b600082825260208201905092915050565b60005b838110156130cb5780820151818401526020810190506130b0565b60008484015250505050565b6000601f19601f8301169050919050565b60006130f382613091565b6130fd818561309c565b935061310d8185602086016130ad565b613116816130d7565b840191505092915050565b6000602082019050818103600083015261313b81846130e8565b905092915050565b6000819050919050565b61315681613143565b811461316157600080fd5b50565b6000813590506131738161314d565b92915050565b60006020828403121561318f5761318e612fcc565b5b600061319d84828501613164565b91505092915050565b600073ffffffffffffffffffffffffffffffffffffffff82169050919050565b60006131d1826131a6565b9050919050565b6131e1816131c6565b82525050565b60006020820190506131fc60008301846131d8565b92915050565b61320b816131c6565b811461321657600080fd5b50565b60008135905061322881613202565b92915050565b6000806040838503121561324557613244612fcc565b5b600061325385828601613219565b925050602061326485828601613164565b9150509250929050565b61327781613143565b82525050565b6000602082019050613292600083018461326e565b92915050565b600080604083850312156132af576132ae612fcc565b5b60006132bd85828601613164565b92505060206132ce85828601613164565b9150509250929050565b6000806000606084860312156132f1576132f0612fcc565b5b60006132ff86828701613219565b935050602061331086828701613219565b925050604061332186828701613164565b9150509250925092565b600081519050919050565b600082825260208201905092915050565b6000819050602082019050919050565b61336081613143565b82525050565b61336f816131c6565b82525050565b61337e8161305b565b82525050565b60808201600082015161339a6000850182613357565b5060208201516133ad6020850182613357565b5060408201516133c06040850182613366565b5060608201516133d36060850182613375565b50505050565b60006133e58383613384565b60808301905092915050565b6000602082019050919050565b60006134098261332b565b6134138185613336565b935061341e83613347565b8060005b8381101561344f57815161343688826133d9565b9750613441836133f1565b925050600181019050613422565b5085935050505092915050565b6000602082019050818103600083015261347681846133fe565b905092915050565b600080fd5b600080fd5b7f4e487b7100000000000000000000000000000000000000000000000000000000600052604160045260246000fd5b6134c0826130d7565b810181811067ffffffffffffffff821117156134df576134de613488565b5b80604052505050565b60006134f2612fc2565b90506134fe82826134b7565b919050565b600067ffffffffffffffff82111561351e5761351d613488565b5b613527826130d7565b9050602081019050919050565b82818337600083830152505050565b600061355661355184613503565b6134e8565b90508281526020810184848401111561357257613571613483565b5b61357d848285613534565b509392505050565b600082601f83011261359a5761359961347e565b5b81356135aa848260208601613543565b91505092915050565b6000602082840312156135c9576135c8612fcc565b5b600082013567ffffffffffffffff8111156135e7576135e6612fd1565b5b6135f384828501613585565b91505092915050565b6080820160008201516136126000850182613357565b5060208201516136256020850182613357565b5060408201516136386040850182613366565b50606082015161364b6060850182613375565b50505050565b600060808201905061366660008301846135fc565b92915050565b60006020828403121561368257613681612fcc565b5b600061369084828501613219565b91505092915050565b6136a28161305b565b81146136ad57600080fd5b50565b6000813590506136bf81613699565b92915050565b600080604083850312156136dc576136db612fcc565b5b60006136ea85828601613219565b92505060206136fb858286016136b0565b9150509250929050565b600067ffffffffffffffff8211156137205761371f613488565b5b613729826130d7565b9050602081019050919050565b600061374961374484613705565b6134e8565b90508281526020810184848401111561376557613764613483565b5b613770848285613534565b509392505050565b600082601f83011261378d5761378c61347e565b5b813561379d848260208601613736565b91505092915050565b600080600080608085870312156137c0576137bf612fcc565b5b60006137ce87828801613219565b94505060206137df87828801613219565b93505060406137f087828801613164565b925050606085013567ffffffffffffffff81111561381157613810612fd1565b5b61381d87828801613778565b91505092959194509250565b600080604083850312156138405761383f612fcc565b5b600083013567ffffffffffffffff81111561385e5761385d612fd1565b5b61386a85828601613585565b925050602061387b85828601613164565b9150509250929050565b6000806040838503121561389c5761389b612fcc565b5b60006138aa85828601613219565b92505060206138bb85828601613219565b9150509250929050565b7f4e487b7100000000000000000000000000000000000000000000000000000000600052602260045260246000fd5b6000600282049050600182168061390c57607f821691505b60208210810361391f5761391e6138c5565b5b50919050565b7f4552433732313a20617070726f76616c20746f2063757272656e74206f776e6560008201527f7200000000000000000000000000000000000000000000000000000000000000602082015250565b600061398160218361309c565b915061398c82613925565b604082019050919050565b600060208201905081810360008301526139b081613974565b9050919050565b7f4552433732313a20617070726f76652063616c6c6572206973206e6f7420746f60008201527f6b656e206f776e6572206f7220617070726f76656420666f7220616c6c000000602082015250565b6000613a13603d8361309c565b9150613a1e826139b7565b604082019050919050565b60006020820190508181036000830152613a4281613a06565b9050919050565b7f596f7520617265206e6f74206f776e6572206f662074686973206e6674000000600082015250565b6000613a7f601d8361309c565b9150613a8a82613a49565b602082019050919050565b60006020820190508181036000830152613aae81613a72565b9050919050565b7f4974656d20697320616c7265616479206f6e2073616c65000000000000000000600082015250565b6000613aeb60178361309c565b9150613af682613ab5565b602082019050919050565b60006020820190508181036000830152613b1a81613ade565b9050919050565b7f5072696365206d75737420626520657175616c20746f206c697374696e67207060008201527f7269636500000000000000000000000000000000000000000000000000000000602082015250565b6000613b7d60248361309c565b9150613b8882613b21565b604082019050919050565b60006020820190508181036000830152613bac81613b70565b9050919050565b7f4552433732313a2063616c6c6572206973206e6f7420746f6b656e206f776e6560008201527f72206f7220617070726f76656400000000000000000000000000000000000000602082015250565b6000613c0f602d8361309c565b9150613c1a82613bb3565b604082019050919050565b60006020820190508181036000830152613c3e81613c02565b9050919050565b7f596f7520616c7265616479206f776e2074686973204e46540000000000000000600082015250565b6000613c7b60188361309c565b9150613c8682613c45565b602082019050919050565b60006020820190508181036000830152613caa81613c6e565b9050919050565b7f506c65617365207375626d6974207468652061736b696e672070726963650000600082015250565b6000613ce7601e8361309c565b9150613cf282613cb1565b602082019050919050565b60006020820190508181036000830152613d1681613cda565b9050919050565b7f496e646578206f7574206f6620626f756e647300000000000000000000000000600082015250565b6000613d5360138361309c565b9150613d5e82613d1d565b602082019050919050565b60006020820190508181036000830152613d8281613d46565b9050919050565b7f4e487b7100000000000000000000000000000000000000000000000000000000600052603260045260246000fd5b7f4e487b7100000000000000000000000000000000000000000000000000000000600052601160045260246000fd5b6000613df282613143565b9150613dfd83613143565b9250828201905080821115613e1557613e14613db8565b5b92915050565b6000613e2682613143565b91507fffffffffffffffffffffffffffffffffffffffffffffffffffffffffffffffff8203613e5857613e57613db8565b5b600182019050919050565b600081905092915050565b6000613e7982613091565b613e838185613e63565b9350613e938185602086016130ad565b80840191505092915050565b6000613eab8284613e6e565b915081905092915050565b7f4552433732313a20696e76616c696420746f6b656e2049440000000000000000600082015250565b6000613eec60188361309c565b9150613ef782613eb6565b602082019050919050565b60006020820190508181036000830152613f1b81613edf565b9050919050565b7f4552433732313a2061646472657373207a65726f206973206e6f74206120766160008201527f6c6964206f776e65720000000000000000000000000000000000000000000000602082015250565b6000613f7e60298361309c565b9150613f8982613f22565b604082019050919050565b60006020820190508181036000830152613fad81613f71565b9050919050565b7f5072696365206d757374206265206174206c6561737420312077656900000000600082015250565b6000613fea601c8361309c565b9150613ff582613fb4565b602082019050919050565b6000602082019050818103600083015261401981613fdd565b9050919050565b7f546f6b656e2055524920616c7265616479206578697374730000000000000000600082015250565b600061405660188361309c565b915061406182614020565b602082019050919050565b6000602082019050818103600083015261408581614049565b9050919050565b60006140988285613e6e565b91506140a48284613e6e565b91508190509392505050565b7f4f776e61626c653a206e6577206f776e657220697320746865207a65726f206160008201527f6464726573730000000000000000000000000000000000000000000000000000602082015250565b600061410c60268361309c565b9150614117826140b0565b604082019050919050565b6000602082019050818103600083015261413b816140ff565b9050919050565b7f4552433732313a207472616e736665722066726f6d20696e636f72726563742060008201527f6f776e6572000000000000000000000000000000000000000000000000000000602082015250565b600061419e60258361309c565b91506141a982614142565b604082019050919050565b600060208201905081810360008301526141cd81614191565b9050919050565b7f4552433732313a207472616e7366657220746f20746865207a65726f2061646460008201527f7265737300000000000000000000000000000000000000000000000000000000602082015250565b600061423060248361309c565b915061423b826141d4565b604082019050919050565b6000602082019050818103600083015261425f81614223565b9050919050565b7f436f756e7465723a2064656372656d656e74206f766572666c6f770000000000600082015250565b600061429c601b8361309c565b91506142a782614266565b602082019050919050565b600060208201905081810360008301526142cb8161428f565b9050919050565b7f4f776e61626c653a2063616c6c6572206973206e6f7420746865206f776e6572600082015250565b600061430860208361309c565b9150614313826142d2565b602082019050919050565b60006020820190508181036000830152614337816142fb565b9050919050565b7f4552433732313a20617070726f766520746f2063616c6c657200000000000000600082015250565b600061437460198361309c565b915061437f8261433e565b602082019050919050565b600060208201905081810360008301526143a381614367565b9050919050565b7f4552433732313a207472616e7366657220746f206e6f6e20455243373231526560008201527f63656976657220696d706c656d656e7465720000000000000000000000000000602082015250565b600061440660328361309c565b9150614411826143aa565b604082019050919050565b60006020820190508181036000830152614435816143f9565b9050919050565b7f45524337323155524953746f726167653a2055524920736574206f66206e6f6e60008201527f6578697374656e7420746f6b656e000000000000000000000000000000000000602082015250565b6000614498602e8361309c565b91506144a38261443c565b604082019050919050565b600060208201905081810360008301526144c78161448b565b9050919050565b60008190508160005260206000209050919050565b60006020601f8301049050919050565b600082821b905092915050565b6000600883026145307fffffffffffffffffffffffffffffffffffffffffffffffffffffffffffffffff826144f3565b61453a86836144f3565b95508019841693508086168417925050509392505050565b6000819050919050565b600061457761457261456d84613143565b614552565b613143565b9050919050565b6000819050919050565b6145918361455c565b6145a561459d8261457e565b848454614500565b825550505050565b600090565b6145ba6145ad565b6145c5818484614588565b505050565b5b818110156145e9576145de6000826145b2565b6001810190506145cb565b5050565b601f82111561462e576145ff816144ce565b614608846144e3565b81016020851015614617578190505b61462b614623856144e3565b8301826145ca565b50505b505050565b600082821c905092915050565b600061465160001984600802614633565b1980831691505092915050565b600061466a8383614640565b9150826002028217905092915050565b61468382613091565b67ffffffffffffffff81111561469c5761469b613488565b5b6146a682546138f4565b6146b18282856145ed565b600060209050601f8311600181146146e457600084156146d2578287015190505b6146dc858261465e565b865550614744565b601f1984166146f2866144ce565b60005b8281101561471a578489015182556001820191506020850194506020810190506146f5565b868310156147375784890151614733601f891682614640565b8355505b6001600288020188555050505b505050505050565b6000608082019050614761600083018761326e565b61476e602083018661326e565b61477b60408301856131d8565b6147886060830184613067565b95945050505050565b600081519050919050565b600082825260208201905092915050565b60006147b882614791565b6147c2818561479c565b93506147d28185602086016130ad565b6147db816130d7565b840191505092915050565b60006080820190506147fb60008301876131d8565b61480860208301866131d8565b614815604083018561326e565b818103606083015261482781846147ad565b905095945050505050565b60008151905061484181613002565b92915050565b60006020828403121561485d5761485c612fcc565b5b600061486b84828501614832565b91505092915050565b7f4e487b7100000000000000000000000000000000000000000000000000000000600052601260045260246000fd5b60006148ae82613143565b91506148b983613143565b92508282039050818111156148d1576148d0613db8565b5b92915050565b7f4e487b7100000000000000000000000000000000000000000000000000000000600052603160045260246000fd5b7f4552433732313a206d696e7420746f20746865207a65726f2061646472657373600082015250565b600061493c60208361309c565b915061494782614906565b602082019050919050565b6000602082019050818103600083015261496b8161492f565b9050919050565b7f4552433732313a20746f6b656e20616c7265616479206d696e74656400000000600082015250565b60006149a8601c8361309c565b91506149b382614972565b602082019050919050565b600060208201905081810360008301526149d78161499b565b905091905056fea264697066735822122056f986f30488f559318385234c702d7bb641828f917d4d192eb2cabbbf08d52d64736f6c63430008110033",
  "immutableReferences": {},
  "source": "// SPDX-License-Identifier: MIT\npragma solidity >=0.4.22 <0.9.0;\nimport \"@openzeppelin/contracts/token/ERC721/extensions/ERC721URIStorage.sol\";\nimport \"@openzeppelin/contracts/utils/Counters.sol\";\nimport \"@openzeppelin/contracts/access/Ownable.sol\";\n\ncontract NftMarketplace is ERC721URIStorage, Ownable {\n    constructor() ERC721(\"ArtNFT\", \"ANFT\") {}\n\n    using Counters for Counters.Counter;\n\n    struct NftItem {\n        uint tokenId;\n        uint price;\n        address creator;\n        bool isListed;\n    }\n    // create struck for transaction\n    struct Transaction {\n        address from;\n        address to;\n        uint tokenId;\n        uint price;\n        uint timestamp;\n    }\n\n    uint public listingPrice = 0.025 ether;\n\n    Counters.Counter private _listedItems;\n    Counters.Counter private _tokenIds;\n\n    mapping(string => bool) private _usedTokenURIs;\n    mapping(uint => NftItem) private _idToNftItem;\n\n    mapping(address => mapping(uint => uint)) private _ownedTokens;\n    mapping(uint => uint) private _idToOwnedIndex;\n\n    uint256[] private _allNfts;\n    // create a variable to store all transactions in an array\n    Transaction[] private _allTransactions;\n    mapping(uint => uint) private _idToNftIndex;\n\n    event NftItemCreated(\n        uint tokenId,\n        uint price,\n        address creator,\n        bool isListed\n    );\n\n    function setListingPrice(uint newPrice) external onlyOwner {\n        require(newPrice > 0, \"Price must be at least 1 wei\");\n        listingPrice = newPrice;\n    }\n\n    function getNftItem(uint tokenId) public view returns (NftItem memory) {\n        return _idToNftItem[tokenId];\n    }\n\n    function listedItemsCount() public view returns (uint) {\n        return _listedItems.current();\n    }\n\n    function tokenURIExists(string memory tokenURI) public view returns (bool) {\n        return _usedTokenURIs[tokenURI] == true;\n    }\n\n    function totalSupply() public view returns (uint) {\n        return _allNfts.length;\n    }\n\n    function tokenByIndex(uint index) public view returns (uint) {\n        require(index < totalSupply(), \"Index out of bounds\");\n        return _allNfts[index];\n    }\n\n    function tokenOfOwnerByIndex(\n        address owner,\n        uint index\n    ) public view returns (uint) {\n        require(index < ERC721.balanceOf(owner), \"Index out of bounds\");\n        return _ownedTokens[owner][index];\n    }\n\n    function getAllNftsOnSale() public view returns (NftItem[] memory) {\n        uint allItemsCounts = totalSupply();\n        uint currentIndex = 0;\n        NftItem[] memory items = new NftItem[](_listedItems.current());\n\n        for (uint i = 0; i < allItemsCounts; i++) {\n            uint tokenId = tokenByIndex(i);\n            NftItem storage item = _idToNftItem[tokenId];\n\n            if (item.isListed == true) {\n                items[currentIndex] = item;\n                currentIndex += 1;\n            }\n        }\n\n        return items;\n    }\n\n    function getOwnedNfts() public view returns (NftItem[] memory) {\n        uint ownedItemsCount = ERC721.balanceOf(msg.sender);\n        NftItem[] memory items = new NftItem[](ownedItemsCount);\n\n        for (uint i = 0; i < ownedItemsCount; i++) {\n            uint tokenId = tokenOfOwnerByIndex(msg.sender, i);\n            NftItem storage item = _idToNftItem[tokenId];\n            items[i] = item;\n        }\n\n        return items;\n    }\n\n    function mintToken(\n        string memory tokenURI,\n        uint price\n    ) public payable returns (uint) {\n        require(!tokenURIExists(tokenURI), \"Token URI already exists\");\n\n        _tokenIds.increment();\n        _listedItems.increment();\n\n        uint newTokenId = _tokenIds.current();\n\n        _safeMint(msg.sender, newTokenId);\n        _setTokenURI(newTokenId, tokenURI);\n        _createNftItem(newTokenId, price);\n        _usedTokenURIs[tokenURI] = true;\n\n        return newTokenId;\n    }\n    \n\n    function buyNft(uint tokenId) public payable {\n        uint price = _idToNftItem[tokenId].price;\n        address owner = ERC721.ownerOf(tokenId);\n\n        require(msg.sender != owner, \"You already own this NFT\");\n        require(msg.value == price, \"Please submit the asking price\");\n\n        _idToNftItem[tokenId].isListed = false;\n        _listedItems.decrement();\n\n        _transfer(owner, msg.sender, tokenId);\n        payable(owner).transfer(msg.value);\n    }\n\n    function placeNftOnSale(uint tokenId, uint newPrice) public payable {\n        require(\n            ERC721.ownerOf(tokenId) == msg.sender,\n            \"You are not owner of this nft\"\n        );\n        require(\n            _idToNftItem[tokenId].isListed == false,\n            \"Item is already on sale\"\n        );\n        require(\n            msg.value >= listingPrice,\n            \"Price must be equal to listing price\"\n        );\n\n        _idToNftItem[tokenId].isListed = true;\n        _idToNftItem[tokenId].price = newPrice;\n        _listedItems.increment();\n    }\n\n    function _createNftItem(uint tokenId, uint price) private {\n        require(price > 0, \"Price must be at least 1 wei\");\n\n        _idToNftItem[tokenId] = NftItem(tokenId, price, msg.sender, true);\n\n        emit NftItemCreated(tokenId, price, msg.sender, true);\n    }\n\n    function _beforeTokenTransfer(\n        address from,\n        address to,\n        uint tokenId,\n        uint L\n    ) internal virtual override {\n        super._beforeTokenTransfer(from, to, tokenId, L);\n\n        if (from == address(0)) {\n            _addTokenToAllTokensEnumeration(tokenId);\n        } else if (from != to) {\n            _removeTokenFromOwnerEnumeration(from, tokenId);\n        }\n\n        if (to == address(0)) {\n            _removeTokenFromAllTokensEnumeration(tokenId);\n        } else if (to != from) {\n            _addTokenToOwnerEnumeration(to, tokenId);\n        }\n    }\n\n    function _addTokenToAllTokensEnumeration(uint tokenId) private {\n        _idToNftIndex[tokenId] = _allNfts.length;\n        _allNfts.push(tokenId);\n    }\n\n    function _addTokenToOwnerEnumeration(address to, uint tokenId) private {\n        uint length = ERC721.balanceOf(to);\n        _ownedTokens[to][length] = tokenId;\n        _idToOwnedIndex[tokenId] = length;\n    }\n\n    function _removeTokenFromOwnerEnumeration(\n        address from,\n        uint tokenId\n    ) private {\n        uint lastTokenIndex = ERC721.balanceOf(from) - 1;\n        uint tokenIndex = _idToOwnedIndex[tokenId];\n\n        if (tokenIndex != lastTokenIndex) {\n            uint lastTokenId = _ownedTokens[from][lastTokenIndex];\n\n            _ownedTokens[from][tokenIndex] = lastTokenId;\n            _idToOwnedIndex[lastTokenId] = tokenIndex;\n        }\n\n        delete _idToOwnedIndex[tokenId];\n        delete _ownedTokens[from][lastTokenIndex];\n    }\n\n    function _removeTokenFromAllTokensEnumeration(uint tokenId) private {\n        uint lastTokenIndex = _allNfts.length - 1;\n        uint tokenIndex = _idToNftIndex[tokenId];\n        uint lastTokenId = _allNfts[lastTokenIndex];\n\n        _allNfts[tokenIndex] = lastTokenId;\n        _idToNftIndex[lastTokenId] = tokenIndex;\n\n        delete _idToNftIndex[tokenId];\n        _allNfts.pop();\n    }\n    // function to keep track of transactions and their status in an array\n    function _addTransaction(\n        address from,\n        address to,\n        uint tokenId,\n        uint price\n    ) private {\n        Transaction memory transaction = Transaction(\n            from,\n            to,\n            tokenId,\n            price,\n            block.timestamp\n        );\n        _allTransactions.push(transaction);\n    }\n    // function to return all transactions in an array\n    function getTransactions() public view returns (uint) {\n        return _listedItems.current();\n    }\n    \n}\n",
  "sourcePath": "/home/safee/Documents/GitHub/nftpool-react/contracts/NftMarketplace.sol",
  "compiler": {
    "name": "solc",
    "version": "0.8.17+commit.8df45f5f.Emscripten.clang"
  },
  "schemaVersion": "3.4.11",
  "updatedAt": "2022-12-21T17:24:12.909Z",
  "networkType": "ethereum",
  "devdoc": {
    "kind": "dev",
    "methods": {
      "approve(address,uint256)": {
        "details": "See {IERC721-approve}."
      },
      "balanceOf(address)": {
        "details": "See {IERC721-balanceOf}."
      },
      "getApproved(uint256)": {
        "details": "See {IERC721-getApproved}."
      },
      "isApprovedForAll(address,address)": {
        "details": "See {IERC721-isApprovedForAll}."
      },
      "name()": {
        "details": "See {IERC721Metadata-name}."
      },
      "owner()": {
        "details": "Returns the address of the current owner."
      },
      "ownerOf(uint256)": {
        "details": "See {IERC721-ownerOf}."
      },
      "renounceOwnership()": {
        "details": "Leaves the contract without owner. It will not be possible to call `onlyOwner` functions anymore. Can only be called by the current owner. NOTE: Renouncing ownership will leave the contract without an owner, thereby removing any functionality that is only available to the owner."
      },
      "safeTransferFrom(address,address,uint256)": {
        "details": "See {IERC721-safeTransferFrom}."
      },
      "safeTransferFrom(address,address,uint256,bytes)": {
        "details": "See {IERC721-safeTransferFrom}."
      },
      "setApprovalForAll(address,bool)": {
        "details": "See {IERC721-setApprovalForAll}."
      },
      "supportsInterface(bytes4)": {
        "details": "See {IERC165-supportsInterface}."
      },
      "symbol()": {
        "details": "See {IERC721Metadata-symbol}."
      },
      "tokenURI(uint256)": {
        "details": "See {IERC721Metadata-tokenURI}."
      },
      "transferFrom(address,address,uint256)": {
        "details": "See {IERC721-transferFrom}."
      },
      "transferOwnership(address)": {
        "details": "Transfers ownership of the contract to a new account (`newOwner`). Can only be called by the current owner."
      }
    },
    "version": 1
  },
  "userdoc": {
    "kind": "user",
    "methods": {},
    "version": 1
  }
}